:020000040000FA
:08000000803102288731D12F65
:10053800640080010131890B9D2A0034FE001200FD
:100548001E00FE0BA32A00345434003473340034E4
:10055800763400343834003420000E158E140E140E
:100568008D018E138E178E13080023008C018D01C8
:10057800073020008C00073021008C0020008D01FE
:1005880021008D01073020008E0021008E01080017
:100598001E30F0000030F10020000E140130F0028F
:1005A8000030F13B70087104031DDB2ADC2AD02AD5
:1005B8001E30F0000030F1000E140130F00200305F
:1005C800F13B70087104031DEA2AEB2AE02A0800AF
:1005D8001E30F0000030F10020000E140130F0024F
:1005E8000030F13B70087104031DFB2AFC2AF02A35
:1005F8001E30F0000030F1000E100130F002003023
:10060800F13B70087104031D0A2B0B2B002B08000B
:100618001B2B2000BA01BB012B2B2000B801B9010C
:100628002B2B2000BA01BB01B801B9012B2B710893
:10063800003A0319202B2B2B7008003A03190D2BB5
:10064800013A0319112B033A0319152B2B2B080018
:10065800F401F501F201F301031020000C19031451
:100668000030093DF000F1017008F6007108F7004C
:1006780077087306031D422B76087206031D452B67
:10068800462B4B2B0130F4070030F53D4D2BF40180
:10069800F501003075020B3003197402031C552B49
:1006A800562B632B7708F1007608F000F009F10962
:1006B80001307005BC0000307105BD00682B77085B
:1006C800F3007608F200302B0800713400347934D6
:1006D80000345E340034583400347C3400345F34E1
:1006E80000346F3400347F340034273400347D34D0
:1006F80000346D340034663400344F3400345B34D5
:100708000034063400343F3400345F3400347C3421
:100718000034583400345E34003479340034713491
:1007280000347634003438340034543400347334AC
:1007380000343F340034063400345B3400344F3422
:100748000034663400346D3400347D34003427348A
:1007580000347F3400346F340034EB2B83312C2386
:10076800833120003C083D04031DBB2BBC2BFB2B15
:100778000130BA000030BB00FB2B83312C238331BE
:1007880020003C033D04031DCA2BCB2BFB2B01305F
:10079800B8000030B900FB2B83312C2383312000B3
:1007A8003C083D04031DD92BDA2BDE2B0130BA009F
:1007B8000030BB003C033D04031DE32BE42BFB2B63
:1007C8003A033B04031DE92BEA2BFB2BCB2B7908BF
:1007D800003A0319F02BFB2B7808003A0319B22BC7
:1007E800013A0319C12B033A0319D02BFB2B08003C
:1007F8003F340034063400345B3400344F34003462
:10080800663400346D3400347D34003427340034C9
:100818007F3400346F3400345F3400347C34003467
:10082800583400345E340034793400347134003480
:1008380071340034793400345E3400345834003470
:100848007C3400345F3400345F3400347C3400344A
:10085800583400345E340034793400347134003450
:10086800063400344F3400346D34003427340034F7
:100878006F3400343F3400345B3400346634003461
:100888007D3400347F3400347A302100990082317D
:10089800B92284318231B022843120000C1C552CBD
:1008A800562C512C8C1C592C5A2C512C0C1D5D2C5F
:1008B8005E2C512C8E148E18622C652C20000E1480
:1008C800672C20000E100E186A2C6D2C20000E15B7
:1008D8006F2C20000E110230F0000030F10083313F
:1008E8000C2384312930FD009630FC007F30890BC1
:1008F8007B2CFC0B7B2CFD0B7B2C0000013020009B
:10090800C2000030C3000A30C4000030C500013006
:10091800C6000030C70086310F2684315F30F000F2
:100928000030F1000030F200F3000030F400F50070
:100938000030F600F7008431A5248431922C8031F0
:1009480002282000C401C501C801C901C201C301B0
:100958008E1370088D008E120E17053076067704F8
:10096800031DB72CB82CBD2CA030C4000F30C50017
:10097800C12CD030C4000730C5004508C700440862
:10098800C60046084704031DCA2CCB2CCC2CD12CFE
:100998000130C6020030C73BC52C8E120E137208F8
:1009A8008D000E138E16053076067704031DDD2C98
:1009B800DE2CE32CA030C4000F30C500E72CD0306B
:1009C800C4000730C5004508C7004408C6004608EB
:1009D8004704031DF02CF12CF22CF72C0130C60231
:1009E8000030C73BEB2C8E120E13FE2D8D018E139B
:1009F8008E178E130E2E36033704031D042D052D76
:100A0800072DB401B501B601B70134083504031D3B
:100A18000E2D0F2D252D48084904031D142D152DC5
:100A2800252D0130B4000030B500B201B30101300A
:100A3800C8000030C9000930C2000030C3004208B5
:100A48008D0034033504031D2A2D2B2D432D480812
:100A58004904031D302D312D432D0230B4000030E0
:100A6800B5000330B2000030B3000130C8000030D8
:100A7800C9000C30C2000030C30042088D000230AB
:100A880034063504031D492D4A2D622D48084904B2
:100A9800031D4F2D502D622D0330B4000030B500DA
:100AA8000230B2000030B3000130C8000030C90085
:100AB8000630C2000030C30042088D0003303406FF
:100AC8003504031D682D692DFB2C48084904031DB6
:100AD8006E2D6F2DFB2CB401B5010130B200003032
:100AE800B3000330C2000030C30042088D00FB2C65
:100AF80036033704031D812D822D842DB201B301E5
:100B0800B601B70132083304031D8B2D8C2DA22D9D
:100B180048084904031D912D922DA22D0130B200E1
:100B28000030B300B401B5010130C8000030C9007D
:100B38000330C2000030C30042088D003203330482
:100B4800031DA72DA82DC02D48084904031DAD2D50
:100B5800AE2DC02D0230B2000030B3000330B40017
:100B68000030B5000130C8000030C9000630C200AE
:100B78000030C30042088D00023032063304031DE2
:100B8800C62DC72DDF2D48084904031DCC2DCD2DBA
:100B9800DF2D0330B2000030B3000230B400003063
:100BA800B5000130C8000030C9000C30C200003068
:100BB800C30042088D00033032063304031DE52DBF
:100BC800E62DFB2C48084904031DEB2DEC2DFB2CCE
:100BD800B201B3010130B4000030B5000930C200E1
:100BE8000030C30042088D00FB2CB201B301B401F0
:100BF800B5010E2E7508003A0319032EF92D740855
:100C0800003A0319FA2C013A0319FF2C033A031985
:100C18007C2DF92D08002000C801C90103100C180B
:100C280003140030093DFA00FB017A08CA007B086A
:100C3800CB0003108C1803140030093DFA00FB01A7
:100C48007A08CC007B08CD004508C9004408C800D4
:100C58004908803AFA0080307A02031D352E0130A7
:100C680048020318382E392E3A2E692E20004203E6
:100C78004304031D402E412E002FCE01CF018231A7
:100C8800EC2286310030F800F9008331B123863137
:100C9800031020000C1803140030093DFA00FB0172
:100CA8004B087B06031D5A2E4A087A0603195D2E47
:100CB8005E2E6D2E461D612E622E6D2E0230F000C6
:100CC8000030F10083310C2386318231CC22863109
:100CD800D02F03108C1803140030093DFA00FB01D3
:100CE8004D087B06031D7A2E4C087A0603197D2EC3
:100CF8007E2E832EC61C812E822E832E622E3C03CE
:100D08003D04031D882E892E942E3A033B04031DAF
:100D18008E2E8F2E942E461C922E932E942E622E5B
:100D28000130CE070030CF3D4F08803AFA008930B5
:100D38007A02031DA12EC5304E02031CA42EA52E37
:100D4800432E2000CE01CF018231CC2286310030E3
:100D5800F800F9008331B1238631031020000C1804
:100D680003140030093DFA00FB014B087B06031D04
:100D7800BF2E4A087A060319C22EC32EC82E461D56
:100D8800C62EC72EC82E622E03108C1803140030EE
:100D9800093DFA00FB014D087B06031DD52E4C08C2
:100DA8007A060319D82ED92EDE2EC61CDC2EDD2E8F
:100DB800DE2E622E3C033D04031DE32EE42EEF2EAF
:100DC8003A033B04031DE92EEA2EEF2E461CED2EB6
:100DD800EE2EEF2E622E0130CE070030CF3D4F08A9
:100DE800803AFA0089307A02031DFC2EC5304E0283
:100DF800031CFF2E002FA82E0530200042064304B6
:100E0800031D072F082FBD2FCE01CF018231EC2201
:100E180086310030F800F9008331B12386310310A0
:100E280020000C1803140030093DFA00FB014B08A0
:100E38007B06031D212F4A087A060319242F252F24
:100E48002A2F461D282F292F2A2F622E03108C188F
:100E580003140030093DFA00FB014D087B06031D11
:100E6800372F4C087A0603193A2F3B2F402FC61C00
:100E78003E2F3F2F402F622E3C033D04031D452F7C
:100E8800462F512F3A033B04031D4B2F4C2F512F54
:100E9800461C4F2F502F512F622E0130CE070030A5
:100EA800CF3D4F08803AFA00A7307A02031D5E2F23
:100EB80011304E02031C612F622F0A2F2000CE0131
:100EC800CF018231CC2286310030F800F90083311D
:100ED800B1238631031020000C1803140030093D9B
:100EE800FA00FB014B087B06031D7C2F4A087A0693
:100EF80003197F2F802F852F461D832F842F852F41
:100F0800622E03108C1803140030093DFA00FB010F
:100F18004D087B06031D922F4C087A060319952F5E
:100F2800962F9B2FC61C992F9A2F9B2F622E3C031E
:100F38003D04031DA02FA12FAC2F3A033B04031D32
:100F4800A62FA72FAC2F461CAA2FAB2FAC2F622E93
:100F58000130CE070030CF3D4F08803AFA00A73065
:100F68007A02031DB92F11304E02031CBC2FBD2F6E
:100F7800652FFF302000C807FF30C93D4908803A77
:100F8800FA0080307A02031DCB2F01304802031883
:100F9800CE2FCF2F3A2E692E0800A8308400823039
:100FA8008500503086000030870008308231A22248
:100FB8008731FC30840083308500A0308600003003
:100FC80087004C308231A222873169308400833017
:100FD8008500203086000130870048308231A22207
:100FE80087312030840000308500223082319C22F5
:080FF800873120008431482CF0
:020000040001F9
:04000E00E409FF1EE4
:00000001FF
