:020000040000FA
:08000000803102288731CF2F67
:1005C4007634003438340034640080010131890BFE
:1005D400E72A0034FE0012001E00FE0BED2A003450
:1005E40020000E158E140E148D018E138E178E138B
:1005F400080020000C19FF2A002B052B0130AA0744
:100604000030AB3D072BAA01AB01080023008C018D
:100614008D01073020008C00073021008C00200061
:100624008D0121008D01073020008E0021008E01F4
:1006340008002A2B2000BA01BB013A2B2000B80184
:10064400B9013A2B2000BA01BB01B801B9013A2B18
:100654007108003A03192F2B3A2B7008003A03193A
:100664001C2B013A0319202B033A0319242B3A2B90
:10067400080020004908F9004808F800F91F432B36
:10068400442B452B5E2B20004B08F1004A08F00058
:100694004D08F3004C08F2004F08F5004E08F40032
:1006A4005108F7005008F6008431F0248331FF30FC
:1006B400F807FF30F93D402B08000A30F000003005
:1006C400F10020004D08F3004C08F200833193231D
:1006D400833171082000CD007008CC004D08F9006A
:1006E4004C08F80078087904031D792B7A2B7B2BAE
:1006F400922B20004908F1004808F0004B08F30051
:100704004A08F2000030F400F5000030F600F7006B
:100714008431F02483310130F8020030F93B742B2A
:100724000800F501F6017008710403199A2B9B2B3C
:10073400CA2BF701F70AA72B0130F035F10D890B0D
:100744009F2B0130F4007408F707F11FAA2BAB2B81
:100754009E2B0130F535F60D890BAC2B7108730215
:10076400031DB62B70087202031CB92BBA2BBF2BC6
:100774007008F2027108F33B75140130F136F00C85
:10078400890BC02B0130F702031DC92BCA2BAB2BDD
:100794007608F1007508F0000800F401F501F20193
:1007A400F301031020000C1903140030093DF0007C
:1007B400F1017008F6007108F70077087306031D4D
:1007C400E52B76087206031DE82BE92BEE2B01308E
:1007D400F4070030F53DF02BF401F501003075020B
:1007E4000B3003197402031CF82BF92B062C770821
:1007F400F1007608F000F009F10901307005FB0002
:1008040000307105FC000B2C7708F3007608F20029
:10081400D32B080071340034793400345E3400344E
:10082400583400347C3400345F3400346F34003482
:100834007F340034273400347D3400346D34003484
:10084400663400344F3400345B34003406340034EE
:100854003F3400345F3400347C3400345834003482
:100864005E34003479340034713400347634003426
:100874003834003454340034733400343F34003496
:10088400063400345B3400344F34003466340034AE
:100894006D3400347D340034273400347F34003424
:1008A4006F3400348F2C8331CF2384317B087C0454
:1008B400031D5D2C5E2C9F2C01302000BA000030FB
:1008C400BB009F2C8331CF2384317B037C04031D25
:1008D4006C2C6D2C9F2C01302000B8000030B90026
:1008E4009F2C8331CF2384317B087C04031D7B2C14
:1008F4007C2C812C01302000BA000030BB007B032B
:100904007C04031D862C872C9F2C20003A033B0477
:10091400031D8D2C8E2C9F2C6D2C7908003A031905
:10092400942C9F2C7808003A0319552C013A03198A
:10093400642C033A0319732C9F2C08003F340034B1
:10094400063400345B3400344F34003466340034ED
:100954006D3400347D340034273400347F34003463
:100964006F3400345F3400347C3400345834003441
:100974005E3400347934003471340034713400341A
:10098400793400345E340034583400347C34003418
:100994005F3400345F3400347C3400345834003421
:1009A4005E34003479340034713400340634003455
:1009B4004F3400346D340034273400346F34003441
:1009C4003F3400345B340034663400347D34003406
:1009D4007F34003454340034733400342000C201B2
:1009E400C301C601C701C001C1018E1370088D0087
:1009F4008E120E17053076067704031D022D032D83
:100A0400082DB830C2000B30C3000C2DE830C200F2
:100A14000330C3004308C5004208C4004408450429
:100A2400031D152D162D172D1C2D0130C402003069
:100A3400C53B102D8E120E1372088D000E138E16E8
:100A4400053076067704031D282D292D2E2DB83068
:100A5400C2000B30C300322DE830C2000330C300A3
:100A64004308C5004208C40044084504031D3B2D47
:100A74003C2D3D2D422D0130C4020030C53B362DA6
:100A84008E120E13492E8D018E138E178E13592E2E
:100A940036033704031D4F2D502D522DB401B501DB
:100AA400B601B70134083504031D592D5A2D702D94
:100AB40046084704031D5F2D602D702D0130B400DE
:100AC4000030B500B201B3010130C6000030C700E8
:100AD4000930C0000030C10040088D0034033504E3
:100AE400031D752D762D8E2D46084704031D7B2D81
:100AF4007C2D8E2D0230B4000030B5000330B200DE
:100B04000030B3000130C6000030C7000C30C00014
:100B14000030C10040088D00023034063504031D46
:100B2400942D952DAD2D46084704031D9A2D9B2D1C
:100B3400AD2D0330B4000030B5000230B2000030F7
:100B4400B3000130C6000030C7000630C0000030DA
:100B5400C10040088D00033034063504031DB32D55
:100B6400B42D462D46084704031DB92DBA2D462D34
:100B7400B401B5010130B2000030B3000330C0004D
:100B84000030C10040088D00462D36033704031D94
:100B9400CC2DCD2DCF2DB201B301B601B701320852
:100BA4003304031DD62DD72DED2D46084704031D10
:100BB400DC2DDD2DED2D0130B2000030B300B40189
:100BC400B5010130C6000030C7000330C00000305A
:100BD400C10040088D0032033304031DF22DF32DB0
:100BE4000B2E46084704031DF82DF92D0B2E023059
:100BF400B2000030B3000330B4000030B50001305F
:100C0400C6000030C7000630C0000030C1004008F4
:100C14008D00023032063304031D112E122E2A2EAB
:100C240046084704031D172E182E2A2E0330B2003F
:100C34000030B3000230B4000030B5000130C6000B
:100C44000030C7000C30C0000030C10040088D00E7
:100C5400033032063304031D302E312E462D460850
:100C64004704031D362E372E462DB201B301013041
:100C7400B4000030B5000930C0000030C1004008A5
:100C84008D00462DB201B301B401B501592E75088A
:100C9400003A03194E2E442E7408003A0319452DC8
:100CA400013A03194A2D033A0319C72D442E0800AB
:100CB4007A30210099008331082386318231F2226F
:100CC400863120000C1C672E682E632E8C1C6B2E24
:100CD4006C2E632E0C1D6F2E702E632E8E148E18A8
:100CE400742E772E20000E14792E20000E100E186C
:100CF4007C2E7F2E20000E15812E20000E11023036
:100D0400F0000030F10083311B23863120000C18E1
:100D14008C2E8D2E2A2F8C1C902E912E2A2F06304D
:100D2400F0000030F1003E30F2000030F3000030FB
:100D3400F400F5000030F600F7008431F024863129
:100D44000030F800F9008431542486317B037C049C
:100D5400031DAD2EAE2E2A2F20003A033B04031DA3
:100D6400B42EB52E2A2F0230F0000030F10083316A
:100D74001B23863106302000C8000030C9003E30F5
:100D8400CA000030CB00E830CC000330CD00833102
:100D94005F23863168302000C8000130C900063066
:100DA400CA000030CB003E30CC000030CD00013012
:100DB400CE000030CF000530D0000030D1008331A8
:100DC4003B23863120000C18E82EE92EFE2E8C1CC5
:100DD400EC2EED2EFE2E0630F0000030F1003E30F9
:100DE400F2000030F3000030F400F5000030F600AB
:100DF400F7008431F024863120000C1C022F032FCD
:100E0400E42E8C1C062F072FE42E5E30F0000030F9
:100E1400F1005E30F2000030F3000030F400F50021
:100E24000030F600F7008431F02486318231FB2251
:100E3400863120002B08803AFA0081307A02031DA3
:100E4400252FF4302A02031C282F292FE42E882E64
:100E540020000C1C2E2F2F2F882E8C18322F332F6E
:100E6400882E3E30F0000030F1005B30F20000309C
:100E7400F3000030F400F5000030F600F700843190
:100E8400F02486310230F8000030F9008431542413
:100E940086317B087C04031D502F512F882E20009F
:100EA40038033904031D572F582F882E0230F000C1
:100EB4000030F10083311B2386313E302000C8000E
:100EC4000030C9005B30CA000030CB00D030CC0009
:100ED4000730CD0083315F238631D0302000C80035
:100EE4000230C9003E30CA000030CB005B30CC0079
:100EF4000030CD000230CE000030CF000130D000F1
:100F04000030D10083313B23863120000C1C8B2F11
:100F14008C2FA12F8C188F2F902FA12F3E30F000F3
:100F24000030F1005B30F2000030F3000030F400D8
:100F3400F5000030F600F7008431F02486312000FB
:100F44000C1CA52FA62F872F8C1CA92FAA2F872F07
:100F54005E30F0000030F1005E30F2000030F3004B
:100F64000030F400F5000030F600F7008431F0247E
:100F740086318231FB22863120002B08803AFA0028
:100F840081307A02031DC82FF4302A02031CCB2FB0
:100F9400CC2F872F882E80310228E23084008230C3
:100FA4008500523086000030870004308231EC2204
:100FB4008731A030840084308500A0308600003062
:100FC400870050308231EC2287310C308400843029
:100FD4008500203086000130870048308231EC22C1
:100FE4008731FB01FC012030840000308500203073
:0C0FF4008231E6228731200086315A2E1F
:020000040001F9
:04000E00E409FF1EE4
:00000001FF
