:020000040000FA
:08000000803102288731CD2F69
:10096A00640080010131890BB62C0034FE001200AC
:10097A001E00FE0BBC2C003420000E148E140E1523
:10098A008D018E138E178E1308003F3400345B34AA
:10099A000034663400347D3400347F3400345434F7
:1009AA00003473340034763400343834003423008D
:1009BA008C018D01073020008C00073021008C004B
:1009CA0020008D0121008D01073020008E002100BA
:1009DA008E010800FE2C2000B801B9010E2D20005E
:1009EA00B601B7010E2D2000B801B901B601B70151
:1009FA000E2D7108003A0319032D0E2D7008003AC6
:100A0A000319F02C013A0319F42C033A0319F82CB0
:100A1A000E2D08000A30F0000030F10020004B08CB
:100A2A00F3004A08F2008531432585317108200018
:100A3A00CB007008CA004B08F9004A08F800780889
:100A4A007904031D292D2A2D2B2D422D200047081C
:100A5A00F1004608F0004908F3004808F2000030A7
:100A6A00F400F5000030F600F70086316326853180
:100A7A000130F8020030F93B242D0800F501F60197
:100A8A007008710403194A2D4B2D7A2DF701F70AC4
:100A9A00572D0130F035F10D890B4F2D0130F4003F
:100AAA007408F707F11F5A2D5B2D4E2D0130F535CD
:100ABA00F60D890B5C2D71087302031D662D7008F3
:100ACA007202031C692D6A2D6F2D7008F2027108DB
:100ADA00F33B75140130F136F00C890B702D01309F
:100AEA00F702031D792D7A2D5B2D7608F100750822
:100AFA00F00008003F340034063400345B3400341C
:100B0A004F340034663400346D3400347D3400349C
:100B1A00273400347F3400346F3400345F340034B7
:100B2A007C340034583400345E3400347934003470
:100B3A007134003471340034793400345E34003452
:100B4A00583400347C3400345F3400345F34003469
:100B5A007C340034583400345E3400347934003440
:100B6A0071340034063400344F3400346D340034A8
:100B7A00273400346F34003471340034793400344B
:100B8A005E340034583400347C3400345F3400342A
:100B9A006F3400347F340034273400347D34003419
:100BAA006D340034663400344F3400345B3400341E
:100BBA00063400343F3400345F3400347C3400346B
:100BCA00583400345E3400347934003471340034DB
:100BDA0076340034383400345434003473340034F6
:100BEA003F340034063400345B3400344F3400346C
:100BFA00663400346D3400347D34003427340034D4
:100C0A007F3400346F3400347A3021009900843103
:100C1A00DC2486318431C124863120000C1C162E36
:100C2A00172E122E8C1C1A2E1B2E122E0C1D1E2E47
:100C3A001F2E122E8E148E18232E262E20000E15ED
:100C4A00282E20000E110E192B2E2E2E20000E14E7
:100C5A00302E20000E100230F0000030F1008431F6
:100C6A00EF24863120000C183B2E3C2E372E0C1810
:100C7A003F2E402E3C2E0930D4000030D50054358A
:100C8A00543E860001308700403FC600413FC700FE
:100C9A000030C800C900F430CA000130CB008531E9
:100CAA000F258631FF302000D407FF30D53DD51FF0
:100CBA005F2E602E442E3C2E803102282000C00177
:100CCA00C101C401C501BE01BF018E1370088D00A8
:100CDA008E120E17053076067704031D752E762EB2
:100CEA007B2EA030C0000F30C1007F2ED030C00054
:100CFA000730C1004108C3004008C200420843044B
:100D0A00031D882E892E8A2E8F2E0130C2020030B2
:100D1A00C33B832E8E120E1372088D000E138E168D
:100D2A00053076067704031D9B2E9C2EA12EA0303B
:100D3A00C0000F30C100A52ED030C0000730C1005E
:100D4A004108C3004008C20042084304031DAE2EF6
:100D5A00AF2EB02EB52E0130C2020030C33BA92EF1
:100D6A008E120E13BC2F8D018E138E178E13CC2F5D
:100D7A0034033504031DC22EC32EC52EFA01FB010E
:100D8A00B401B5017A087B04031DCC2ECD2EE32EC7
:100D9A0044084504031DD22ED32EE32E0130FA0057
:100DAA000030FB00B201B3010130C4000030C500BD
:100DBA000930BE000030BF003E088D007A037B0474
:100DCA00031DE82EE92E012F44084504031DEE2ECB
:100DDA00EF2E012F0230FA000030FB000330B20080
:100DEA000030B3000130C4000030C5000C30BE0032
:100DFA000030BF003E088D0002307A067B04031DD6
:100E0A00072F082F202F44084504031D0D2F0E2FEE
:100E1A00202F0330FA000030FB000230B20000300D
:100E2A00B3000130C4000030C5000630BE000030F7
:100E3A00BF003E088D0003307A067B04031D262F6F
:100E4A00272FB92E44084504031D2C2F2D2FB92E08
:100E5A00FA01FB010130B2000030B3000330BE00DA
:100E6A000030BF003E088D00B92E34033504031D3F
:100E7A003F2F402F422FB201B301B401B50132080E
:100E8A003304031D492F4A2F602F44084504031DCC
:100E9A004F2F502F602F0130B2000030B300FA01FB
:100EAA00FB010130C4000030C5000330BE00003031
:100EBA00BF003E088D0032033304031D652F662FE1
:100ECA007E2F44084504031D6B2F6C2F7E2F0230A2
:100EDA00B2000030B3000330FA000030FB000130EA
:100EEA00C4000030C5000630BE000030BF003E0816
:100EFA008D00023032063304031D842F852F9D2F67
:100F0A0044084504031D8A2F8B2F9D2F0330B200FE
:100F1A000030B3000230FA000030FB000130C40098
:100F2A000030C5000C30BE000030BF003E088D0006
:100F3A00033032063304031DA32FA42FB92E44080D
:100F4A004504031DA92FAA2FB92EB201B3010130FE
:100F5A00FA000030FB000930BE000030BF003E0836
:100F6A008D00B92EB201B301FA01FB01CC2F75082D
:100F7A00003A0319C12FB72F7408003A0319B82E83
:100F8A00013A0319BD2E033A03193A2FB72F080065
:100F9A00CA308400843085005630860000308700CD
:100FAA0012308431BB2487317F308400853085003C
:100FBA00A03086000030870042308431BB2487315C
:100FCA00C1308400853085002030860001308700DA
:100FDA0048308431BB248731FA01FB01FC01FD0151
:100FEA0020308400003085001E308431B5248731DA
:060FFA0020008631092EE3
:020000040001F9
:04000E00E409FF1EE4
:00000001FF
