:020000040000FA
:08000000803102288731CD2F69
:10083200640080010131890B1A2C0034FE00120081
:100842001E00FE0B202C003420000E148E140E15F8
:100852008D018E138E178E1308003F3400345B34E3
:100862000034663400347D3400347F340034543430
:1008720000347334003476340034383400342300C6
:100882008C018D01073020008C00073021008C0084
:1008920020008D0121008D01073020008E002100F3
:1008A2008E010800622C2000B801B901722C2000D0
:1008B200B601B701722C2000B801B901B601B70127
:1008C200722C7108003A0319672C722C7008003AD6
:1008D2000319542C013A0319582C033A03195C2CBE
:1008E200722C08000A30F0000030F10020005D0890
:1008F200F3005C08F2008431A724843171082000DF
:10090200DD007008DC005D08F9005C08F80078087A
:100912007904031D8D2C8E2C8F2CA62C20005908B7
:10092200F1005808F0005B08F3005A08F2000030AA
:10093200F400F5000030F600F700863163268431BA
:100942000130F8020030F93B882C0800F501F6016D
:10095200700871040319AE2CAF2CDE2CF701F70AD4
:10096200BB2C0130F035F10D890BB32C0130F400B2
:100972007408F707F11FBE2CBF2CB22C0130F535DD
:10098200F60D890BC02C71087302031DCA2C700866
:100992007202031CCD2CCE2CD32C7008F2027108EB
:1009A200F33B75140130F136F00C890BD42C013075
:1009B200F702031DDD2CDE2CBF2C7608F100750832
:1009C200F0000800F401F501F201F3010310200028
:1009D2000C1903140030093DF000F1017008F60013
:1009E2007108F70077087306031DF92C7608720662
:1009F200031DFC2CFD2C022D0130F4070030F53DC7
:100A0200042DF401F501003075020B300319740254
:100A1200031C0C2D0D2D1A2D7708F1007608F0001D
:100A2200F009F10901307005FC0000307105FD008C
:100A32001F2D7708F3007608F200E72C08007134C6
:100A42000034793400345E340034583400347C3459
:100A520000345F3400346F3400347F340034273480
:100A620000347D3400346D340034663400344F3445
:100A720000345B340034063400343F3400343F34F5
:100A82000034063400345B3400344F3400346634AE
:100A920000346D3400347D340034273400347F3424
:100AA20000346F34003471340034793400345E34ED
:100AB2000034583400347C3400345F3400343F3422
:100AC2000034063400345B3400344F34003466346E
:100AD20000346D3400347D340034273400347F34E4
:100AE20000346F3400345F3400347C3400345834C2
:100AF20000345E34003479340034713400345F34AD
:100B020000347C340034583400345E340034793498
:100B120000347134003476340034383400345434C0
:100B22000034733400345F3400347C34003458347D
:100B320000345E34003479340034713400340634C5
:100B420000344F3400346D340034273400346F34B1
:100B52000034E52D8431E32485317C087D04031DB6
:100B6200B32DB42DF52D01302000B8000030B900AE
:100B7200F52D8431E32485317C037D04031DC22DD0
:100B8200C32DF52D01302000B6000030B700F52D41
:100B92008431E32485317C087D04031DD12DD22DBF
:100BA200D72D01302000B8000030B9007C037D044D
:100BB200031DDC2DDD2DF52D200038033904031D26
:100BC200E32DE42DF52DC32D7908003A0319EA2D02
:100BD200F52D7808003A0319AB2D013A0319BA2D05
:100BE200033A0319C92DF52D08007A302100990026
:100BF20084314024853184312524853120000C1C28
:100C0200032E042EFF2D8C1C072E082EFF2D0C1DEB
:100C12000B2E0C2EFF2D8E148E18102E132E20004C
:100C22000E15152E20000E110E19182E1B2E200047
:100C32000E141D2E20000E100230F0000030F100C4
:100C420084315324853120000C18282E292E242E7D
:100C52000C182C2E2D2E292E4030F0000030F100E1
:100C62004030F2000030F3000030F400F5000030B4
:100C7200F600F7008631632685310230F800003035
:100C8200F9008531AA2585310030F000F1000030ED
:100C9200F200F3000130F4000030F5000130F600FC
:100CA2000030F70086316326853103307A067B04F3
:100CB200031D5C2E5D2E452E8431252485315D2E4B
:100CC200803102282000D201D301D601D701D00100
:100CD200D1018E1370088D008E120E170530760624
:100CE2007704031D752E762E7B2EA030D2000F3096
:100CF200D3007F2ED030D2000730D3005308D50066
:100D02005208D40054085504031D882E892E8A2EB9
:100D12008F2E0130D4020030D53B832E8E120E135B
:100D220072088D000E138E16053076067704031DA9
:100D32009B2E9C2EA12EA030D2000F30D300A52EC8
:100D4200D030D2000730D3005308D5005208D40067
:100D520054085504031DAE2EAF2EB02EB52E013011
:100D6200D4020030D53BA92E8E120E13BC2F8D015A
:100D72008E138E178E13CC2F34033504031DC22E0F
:100D8200C32EC52EB201B301B401B501320833043A
:100D9200031DCC2ECD2EE32E56085704031DD22E52
:100DA200D32EE32E0130B2000030B300FA01FB0172
:100DB2000130D6000030D7000930D0000030D10019
:100DC20050088D0032033304031DE82EE92E012F53
:100DD20056085704031DEE2EEF2E012F0230B200EB
:100DE2000030B3000330FA000030FB000130D600BF
:100DF2000030D7000C30D0000030D10050088D00F8
:100E0200023032063304031D072F082F202F560805
:100E12005704031D0D2F0E2F202F0330B200003078
:100E2200B3000230FA000030FB000130D60000307F
:100E3200D7000630D0000030D10050088D000330BA
:100E420032063304031D262F272FB92E56085704C6
:100E5200031D2C2F2D2FB92EB201B3010130FA0040
:100E62000030FB000330D0000030D10050088D006C
:100E7200B92E34033504031D3F2F402F422FFA01B0
:100E8200FB01B401B5017A087B04031D492F4A2FE7
:100E9200602F56085704031D4F2F502F602F01302B
:100EA200FA000030FB00B201B3010130D60000307D
:100EB200D7000330D0000030D10050088D007A03F3
:100EC2007B04031D652F662F7E2F56085704031DD2
:100ED2006B2F6C2F7E2F0230FA000030FB000330A4
:100EE200B2000030B3000130D6000030D700063027
:100EF200D0000030D10050088D0002307A067B0409
:100F0200031D842F852F9D2F56085704031D8A2FFA
:100F12008B2F9D2F0330FA000030FB000230B2000D
:100F22000030B3000130D6000030D7000C30D000C2
:100F32000030D10050088D0003307A067B04031D77
:100F4200A32FA42FB92E56085704031DA92FAA2F89
:100F5200B92EFA01FB010130B2000030B3000930B2
:100F6200D0000030D10050088D00B92EFA01FB01EB
:100F7200B201B301CC2F7508003A0319C12FB72F64
:100F82007408003A0319B82E013A0319BD2E033A28
:100F920003193A2FB72F08002E30840084308500C1
:100FA2003E30860000308700123084311F248731A2
:100FB2006030840085308500A030860000308700D4
:100FC2004A3084311F2487312030840085308500E7
:100FD2002030860001308700403084311F24873161
:100FE200FA01FB01FC01FD01203084000030850084
:0E0FF2001E3084311924873120008531F62D00
:020000040001F9
:04000E00E409FF1EE4
:00000001FF
