:020000040000FA
:08000000803102288731D12F65
:10066C00640080010131890B372B0034FE0012002D
:10067C001E00FE0B3D2B0034543400347334003414
:10068C00763400343834003420000E148E140E15D9
:10069C008D018E138E178E13080020000C19572B0A
:1006AC00582B5D2B0130AA070030AB3D5F2BAA0104
:1006BC00AB01080023008C018D01073020008C0059
:1006CC00073021008C0020008D0121008D010730A6
:1006DC0020008E0021008E010800822B2000BA0120
:1006EC00BB01922B2000B801B901922B2000BA015A
:1006FC00BB01B801B901922B7108003A0319872B81
:10070C00922B7008003A0319742B013A0319782BB9
:10071C00033A03197C2B922B080020004B08F9009C
:10072C004A08F800F91F9B2B9C2B9D2BB62B200005
:10073C004D08F1004C08F0004F08F3004E08F20091
:10074C005108F5005008F4005308F7005208F60061
:10075C00863167268331FF30F807FF30F93D982B3F
:10076C0008000230F8000030F9008431D9248331BC
:10077C0020003C033D04031DC42BC52BCE2B3A0398
:10078C003B04031DCA2BCB2BCE2B8331532383313C
:10079C0020003C083D04031DD42BD52BB72B38036C
:1007AC003904031DDA2BDB2BB72B83315323833115
:1007BC0020002B08FB002A08FA0008000A30F00081
:1007CC000030F10020004F08F3004E08F200843195
:1007DC001824833171082000CF007008CE004F0818
:1007EC00F9004E08F80078087904031DFE2BFF2B46
:1007FC00002C172C20004B08F1004A08F0004D0883
:10080C00F3004C08F2000030F400F5000030F60064
:10081C00F7008631672683310130F8020030F93B4E
:10082C00F92B0800F501F6017008710403191F2C4F
:10083C00202C4F2CF701F70A2C2C0130F035F10D40
:10084C00890B242C0130F4007408F707F11F2F2CAE
:10085C00302C232C0130F535F60D890B312C710819
:10086C007302031D3B2C70087202031C3E2C3F2CA0
:10087C00442C7008F2027108F33B75140130F13608
:10088C00F00C890B452C0130F702031D4E2C4F2C1C
:10089C00302C7608F1007508F0000800F401F50121
:1008AC00F201F301031020000C1903140030093D70
:1008BC00F000F1017008F6007108F7007708730674
:1008CC00031D6A2C76087206031D6D2C6E2C732C7E
:1008DC000130F4070030F53D752CF401F5010030C2
:1008EC0075020B3003197402031C7D2C7E2C8B2C8F
:1008FC007708F1007608F000F009F1090130700575
:10090C00BC0000307105BD00902C7708F300760810
:10091C00F200582C08003F340034063400345B34A9
:10092C0000344F340034663400346D3400347D347C
:10093C000034273400347F3400346F3400345F3497
:10094C0000347C340034583400345E340034793450
:10095C000034713400343F340034063400345B34DA
:10096C0000344F340034663400346D3400347D343C
:10097C000034273400347F3400346F3400340634B0
:10098C0000344F3400346D340034273400346F3469
:10099C0000343F3400345B340034663400347D342E
:1009AC0000347F340034132D8431542484312000DE
:1009BC003C083D04031DE32CE42C232D0130BA002C
:1009CC000030BB00232D84315424843120003C039F
:1009DC003D04031DF22CF32C232D0130B800003004
:1009EC00B900232D84315424843120003C083D046B
:1009FC00031D012D022D062D0130BA000030BB0065
:100A0C003C033D04031D0B2D0C2D232D3A033B04FD
:100A1C00031D112D122D232DF32C7908003A0319E7
:100A2C00182D232D7808003A0319DA2C013A0319F2
:100A3C00E92C033A0319F82C232D080071340034E7
:100A4C00793400345E340034583400347C3400344F
:100A5C005F3400346F3400347F3400342734003476
:100A6C007D3400346D340034663400344F3400343B
:100A7C005B340034063400343F3400345F340034CB
:100A8C007C340034583400345E340034793400340F
:100A9C007134003476340034383400345434003437
:100AAC007334003471340034793400345E340034DF
:100ABC00583400347C3400345F3400345F340034F8
:100ACC007C340034583400345E34003479340034CF
:100ADC00713400347A3021009900833160238531E0
:100AEC0083314A23853120000C1C7D2D7E2D792DE0
:100AFC008C1C812D822D792D0C1D852D862D792D0B
:100B0C008E148E188A2D8D2D20000E158F2D200001
:100B1C000E110E19922D952D20000E14972D2000DC
:100B2C000E100230F0000030F10083317323853158
:100B3C0020000C18A22DA32D9E2D0C18A62DA72D30
:100B4C00A32D0930DE000030DF005E35C03E86008C
:100B5C008701403FCA00413FCB000030CC00CD00A4
:100B6C00F430CE000130CF008331E4238531572E91
:100B7C005E35C03E86008701403FF000413FF100EA
:100B8C003F30F2000030F3000030F400F50000308C
:100B9C00F600F7008631672685318331B72385311E
:100BAC007B082000DB007A08DA000230F00000300D
:100BBC00F10083317323853120005B08803AFC00FF
:100BCC0083307C02031DEC2DE8305A02031CEF2D00
:100BDC00F02D572E2000DC01DD01192E683020008D
:100BEC00CA000130CB005E35C03E86008701403F15
:100BFC00CC00413FCD005C35C03E86008701403FB4
:100C0C00CE00413FCF000130D0000030D100013088
:100C1C00D2000030D3008331932385310130200082
:100C2C00DC070030DD3D5D08803AFC005F08803A4F
:100C3C007C02031D232E5E085C02031C262E272E2D
:100C4C00F42D20005E35C03E86008701403FCA006F
:100C5C00413FCB005C35C03E86008701403FCC0055
:100C6C00413FCD00F430CE000130CF008331E4237E
:100C7C00853100302000CA00CB000030CC00CD0004
:100C8C00F430CE000130CF008331E42385312000D5
:100C9C000C1C512E522E272E8C1C552E562E272EC8
:100CAC00A32D20008C1C5B2E5C2EBE2DFF30DE078E
:100CBC00FF30DF3DDF1F632E642EAB2DA32D803163
:100CCC0002282000C401C501C801C901C201C30129
:100CDC008E1370088D008E120E1705307606770471
:100CEC00031D792E7A2E7F2EA030C4000F30C50044
:100CFC00832ED030C4000730C5004508C700440817
:100D0C00C60046084704031D8C2E8D2E8E2E932E66
:100D1C000130C6020030C73B872E8E120E137208AC
:100D2C008D000E138E16053076067704031D9F2E4C
:100D3C00A02EA52EA030C4000F30C500A92ED03097
:100D4C00C4000730C5004508C7004408C600460863
:100D5C004704031DB22EB32EB42EB92E0130C60299
:100D6C000030C73BAD2E8E120E13C02F8D018E138B
:100D7C008E178E13D02F36033704031DC62EC72EA5
:100D8C00C92EB401B501B601B70134083504031DF1
:100D9C00D02ED12EE72E48084904031DD62ED72E6F
:100DAC00E72E0130B4000030B500B201B3010130C0
:100DBC00C8000030C9000930C2000030C30042082E
:100DCC008D0034033504031DEC2EED2E052F480841
:100DDC004904031DF22EF32E052F0230B40000300F
:100DEC00B5000330B2000030B3000130C800003051
:100DFC00C9000C30C2000030C30042088D00023024
:100E0C0034063504031D0B2F0C2F242F48084904DE
:100E1C00031D112F122F242F0330B4000030B50006
:100E2C000230B2000030B3000130C8000030C900FD
:100E3C000630C2000030C30042088D000330340677
:100E4C003504031D2A2F2B2FBD2E48084904031DE2
:100E5C00302F312FBD2EB401B5010130B20000305E
:100E6C00B3000330C2000030C30042088D00BD2E19
:100E7C0036033704031D432F442F462FB201B30111
:100E8C00B601B70132083304031D4D2F4E2F642FCA
:100E9C0048084904031D532F542F642F0130B2000E
:100EAC000030B300B401B5010130C8000030C900F6
:100EBC000330C2000030C30042088D0032033304FB
:100ECC00031D692F6A2F822F48084904031D6F2FB9
:100EDC00702F822F0230B2000030B3000330B40008
:100EEC000030B5000130C8000030C9000630C20027
:100EFC000030C30042088D00023032063304031D5B
:100F0C00882F892FA12F48084904031D8E2F8F2F5E
:100F1C00A12F0330B2000030B3000230B400003017
:100F2C00B5000130C8000030C9000C30C2000030E0
:100F3C00C30042088D00033032063304031DA72F73
:100F4C00A82FBD2E48084904031DAD2FAE2FBD2E72
:100F5C00B201B3010130B4000030B5000930C20059
:100F6C000030C30042088D00BD2EB201B301B401A4
:100F7C00B501D02F7508003A0319C52FBB2F740883
:100F8C00003A0319BC2E013A0319C12E033A031976
:100F9C003E2FBB2F08004230840083308500603028
:100FAC00860000308700083083313C238731913034
:100FBC00840084308500A0308600003087004830E3
:100FCC0083313C23873124308400853085002030E8
:100FDC008600013087004C3083313C238731203030
:100FEC008400003085002230833136238731200085
:040FFC008531702D9E
:020000040001F9
:04000E00E409FF1EE4
:00000001FF
