:020000040000FA
:08000000803102288731CD2F69
:10093800640080010131890B9D2C0034FE001200F7
:100948001E00FE0BA32C003420000E148E140E156E
:100958008D018E138E178E1308003F3400345B34DC
:100968000034663400347D3400347F340034543429
:1009780000347334003476340034383400342300BF
:100988008C018D01073020008C00073021008C007D
:1009980020008D0121008D01073020008E002100EC
:1009A8008E010800E52C2000B801B901F52C2000C3
:1009B800B601B701F52C2000B801B901B601B7019D
:1009C800F52C7108003A0319EA2CF52C7008003A46
:1009D8000319D72C013A0319DB2C033A0319DF2C2E
:1009E800F52C08000A30F0000030F10020004B0818
:1009F800F3004A08F20085312A2584317108200065
:100A0800CB007008CA004B08F9004A08F8007808BB
:100A18007904031D102D112D122D292D20004708B2
:100A2800F1004608F0004908F3004808F2000030D9
:100A3800F400F5000030F600F700863163268431B3
:100A48000130F8020030F93B0B2D0800F501F601E2
:100A5800700871040319312D322D612DF701F70A41
:100A68003E2D0130F035F10D890B362D0130F400A3
:100A78007408F707F11F412D422D352D0130F5354A
:100A8800F60D890B432D71087302031D4D2D700857
:100A98007202031C502D512D562D7008F202710858
:100AA800F33B75140130F136F00C890B572D0130EA
:100AB800F702031D602D612D422D7608F10075089F
:100AC800F000080071340034793400345E340034A6
:100AD800583400347C3400345F3400346F340034CC
:100AE8007F340034273400347D3400346D340034CE
:100AF800663400344F3400345B3400340634003438
:100B08003F3400345F3400347C34003458340034CB
:100B18005E3400347934003471340034763400346F
:100B280038340034543400347334003471340034AD
:100B3800793400345E340034583400347C34003462
:100B48005F3400343F340034063400345B340034FE
:100B58004F340034663400346D3400347D3400344E
:100B6800273400347F3400346F3400345F34003469
:100B78007C340034583400345E3400347934003422
:100B8800713400343F340034063400345B340034AC
:100B98004F340034663400346D3400347D3400340E
:100BA800273400347F3400346F3400345F34003429
:100BB8007C340034583400345E34003479340034E2
:100BC80071340034063400344F3400346D3400344A
:100BD800273400346F3400347A302100990084318E
:100BE800C32485318431A824853120000C1CFD2DB7
:100BF800FE2DF92D8C1C012E022EF92D0C1D052E13
:100C0800062EF92D8E148E180A2E0D2E20000E1584
:100C18000F2E20000E110E19122E152E20000E1464
:100C2800172E20000E100230F0000030F100843141
:100C3800D624853120000C18222E232E1E2E0C18A7
:100C4800262E272E232E0930D4000030D500543507
:100C5800C03E86008701403FC600413FC7000030C4
:100C6800C800C900F430CA000130CB008431F62432
:100C7800853120008C18412E422E582E20005435E4
:100C8800C03E86008701403FF000413FF100003040
:100C9800F200F3000030F400F5000030F600F70031
:100CA800863163268531422EFF30D407FF30D53D8B
:100CB800D51F5F2E602E2B2E232E80310228200078
:100CC800C001C101C401C501BE01BF018E13700876
:100CD8008D008E120E17053076067704031D752ECB
:100CE800762E7B2EA030C0000F30C1007F2ED03072
:100CF800C0000730C1004108C3004008C2004208D4
:100D08004304031D882E892E8A2E8F2E0130C2029D
:100D18000030C33B832E8E120E1372088D000E1303
:100D28008E16053076067704031D9B2E9C2EA12E69
:100D3800A030C0000F30C100A52ED030C000073051
:100D4800C1004108C3004008C20042084304031D13
:100D5800AE2EAF2EB02EB52E0130C2020030C33BEE
:100D6800A92E8E120E13BC2F8D018E138E178E1383
:100D7800CC2F34033504031DC22EC32EC52EFA0111
:100D8800FB01B401B5017A087B04031DCC2ECD2EDE
:100D9800E32E44084504031DD22ED32EE32E013042
:100DA800FA000030FB00B201B3010130C40000308A
:100DB800C5000930BE000030BF003E088D007A0330
:100DC8007B04031DE82EE92E012F44084504031D6A
:100DD800EE2EEF2E012F0230FA000030FB00033018
:100DE800B2000030B3000130C4000030C5000C3040
:100DF800BE000030BF003E088D0002307A067B043A
:100E0800031D072F082F202F44084504031D0D2F0D
:100E18000E2F202F0330FA000030FB000230B20002
:100E28000030B3000130C4000030C5000630BE00F9
:100E38000030BF003E088D0003307A067B04031D96
:100E4800262F272FB92E44084504031D2C2F2D2F9C
:100E5800B92EFA01FB010130B2000030B3000330B3
:100E6800BE000030BF003E088D00B92E34033504A3
:100E7800031D3F2F402F422FB201B301B401B5012A
:100E880032083304031D492F4A2F602F44084504B4
:100E9800031D4F2F502F602F0130B2000030B300D8
:100EA800FA01FB010130C4000030C5000330BE0068
:100EB8000030BF003E088D0032033304031D652F48
:100EC800662F7E2F44084504031D6B2F6C2F7E2F41
:100ED8000230B2000030B3000330FA000030FB00EB
:100EE8000130C4000030C5000630BE000030BF002D
:100EF8003E088D00023032063304031D842F852FEF
:100F08009D2F44084504031D8A2F8B2F9D2F0330E6
:100F1800B2000030B3000230FA000030FB000130AC
:100F2800C4000030C5000C30BE000030BF003E08D1
:100F38008D00033032063304031DA32FA42FB92ECE
:100F480044084504031DA92FAA2FB92EB201B301E5
:100F58000130FA000030FB000930BE000030BF004D
:100F68003E088D00B92EB201B301FA01FB01CC2F66
:100F78007508003A0319C12FB72F7408003A0319EE
:100F8800B82E013A0319BD2E033A03193A2FB72F89
:100F98000800B13084008430850056308600003067
:100FA800870012308431A2248731A630840085302E
:100FB8008500A0308600003087004A308431A224A2
:100FC8008731663084008530850020308600013006
:100FD800870040308431A2248731FA01FB01FC01EB
:100FE800FD0120308400003085001E3084319C24AF
:080FF800873120008531F02D46
:020000040001F9
:04000E00E409FF1EE4
:00000001FF
