:020000040000FA
:08000000803102288731CF2F67
:10069800640080010131890B4D2B0034FE001200EB
:1006A8001E00FE0B532B003420000E148E140E1562
:1006B8008D018E138E178E1308003F3400345B347F
:1006C8000034663400347D3400347F3400345434CC
:1006D8000034733400347634003438340034230062
:1006E8008C018D01073020008C00073021008C0020
:1006F80020008D0121008D01073020008E0021008F
:100708008E0108005E30F0000030F1005430F20035
:100718000030F3000030F400F5000030F600F70078
:100728008431A32483311530F9004B30F800BE30F2
:10073800890B9C2BF80B9C2BF90B9C2B003220006F
:100748000C18A72BA82BA32B08000A30F0000030A8
:10075800F10020005F08F3005E08F2008331DD231A
:10076800833171082000DF007008DE005F08F9009F
:100778005E08F80078087904031DC32BC42BC52B29
:10078800DC2B20005B08F1005A08F0005D08F3003C
:100798005C08F2000030F400F5000030F600F700C5
:1007A8008431A32483310130F8020030F93BBE2B99
:1007B8000800F501F601700871040319E42BE52B14
:1007C800142CF701F70AF12B0130F035F10D890BE4
:1007D800E92B0130F4007408F707F11FF42BF52B0F
:1007E800E82B0130F535F60D890BF62B71087302ED
:1007F800031D002C70087202031C032C042C092C06
:100808007008F2027108F33B75140130F136F00CF0
:10081800890B0A2C0130F702031D132C142CF52B1D
:100828007608F1007508F00008003F3400340634FB
:1008380000345B3400344F340034663400346D3493
:1008480000347D340034273400347F3400346F346E
:1008580000345F3400347C340034583400345E345F
:10086800003479340034713400347134003479340C
:1008780000345E340034583400347C3400345F343F
:1008880000345F3400347C340034583400345E342F
:1008980000347934003471340034063400344F3471
:1008A80000346D340034273400346F34003471342C
:1008B8000034793400345E340034583400347C34E5
:1008C80000345F3400346F3400347F34003427340C
:1008D80000347D3400346D340034663400344F34D1
:1008E80000345B340034063400343F3400345F3461
:1008F80000347C340034583400345E3400347934A5
:1009080000347134003476340034383400345434CC
:100918000034733400343F340034063400345B341C
:1009280000344F340034663400346D3400347D3480
:100938000034273400347F3400346F34003420000E
:10094800D401D501D801D901D201D3018E13700881
:100958008D008E120E17053076067704031DB52C10
:10096800B62CBB2CA030D4000F30D500BF2CD03013
:10097800D4000730D5005508D7005408D6005608CB
:100988005704031DC82CC92CCA2CCF2C0130D60201
:100998000030D73BC32C8E120E1372088D000E1335
:1009A8008E16053076067704031DDB2CDC2CE12C33
:1009B800A030D4000F30D500E52CD030D40007305B
:1009C800D5005508D7005408D60056085704031D0B
:1009D800EE2CEF2CF02CF52C0130D6020030D73B52
:1009E800E92C8E120E13FC2D8D018E138E178E138B
:1009F8000C2E36033704031D022D032D052DB401DB
:100A0800B501B601B70134083504031D0C2D0D2DB1
:100A1800232D58085904031D122D132D232D0130A1
:100A2800B4000030B500B201B3010130D800003085
:100A3800D9000930D2000030D30052088D003403A9
:100A48003504031D282D292D412D58085904031D4F
:100A58002E2D2F2D412D0230B4000030B50003306B
:100A6800B2000030B3000130D8000030D9000C309B
:100A7800D2000030D30052088D000230340635040D
:100A8800031D472D482D602D58085904031D4D2D71
:100A98004E2D602D0330B4000030B5000230B20096
:100AA8000030B3000130D8000030D9000630D20041
:100AB8000030D30052088D00033034063504031D7E
:100AC800662D672DF92C58085904031D6C2D6D2DC2
:100AD800F92CB401B5010130B2000030B300033085
:100AE800D2000030D30052088D00F92C36033704A9
:100AF800031D7F2D802D822DB201B301B601B701F0
:100B080032083304031D892D8A2DA02D5808590455
:100B1800031D8F2D902DA02D0130B2000030B300A1
:100B2800B401B5010130D8000030D9000330D2003B
:100B38000030D30052088D0032033304031DA52D65
:100B4800A62DBE2D58085904031DAB2DAC2DBE2D66
:100B58000230B2000030B3000330B4000030B500FA
:100B68000130D8000030D9000630D2000030D30060
:100B780052088D00023032063304031DC42DC52DE2
:100B8800DD2D58085904031DCA2DCB2DDD2D03304A
:100B9800B2000030B3000230B4000030B5000130BC
:100BA800D8000030D9000C30D2000030D3005208F1
:100BB8008D00033032063304031DE32DE42DF92C98
:100BC80058085904031DE92DEA2DF92CB201B30187
:100BD8000130B4000030B5000930D2000030D30035
:100BE80052088D00F92CB201B301B401B5010C2EE5
:100BF8007508003A0319012EF72D7408003A0319F5
:100C0800F82C013A0319FD2C033A03197A2DF72D14
:100C180008007A30210099008331732386318331AB
:100C28005823863120000C1C1A2E1B2E162E8C1CC5
:100C38001E2E1F2E162E0C1D222E232E162E8E141F
:100C48008E18272E2A2E20000E152C2E20000E116D
:100C58000E192F2E322E20000E14342E20000E10C6
:100C68000C18372E382E342E20000C183C2E3D2E12
:100C7800F92E8C1C402E412E532E3E30F0000030B1
:100C8800F1007330F2000030F3000030F400F5009A
:100C98000030F600F7008431A3248631382E0B305B
:100CA800FB002630FA005E30890B582EFA0B582EBE
:100CB800FB0B582E20008C1C622E632E642E382EBF
:100CC8000030F000F1000630F2000030F300003090
:100CD800F400F5000030F600F7008431A3248631D3
:100CE8000B30FB002630FA005E30890B792EFA0BA8
:100CF800792EFB0B792E20008C1C832E842E852EBA
:100D0800382E0030F000F1004F30F2000030F300D0
:100D18000030F400F5000030F600F7008431A32419
:100D280086310B30FB002630FA005E30890B9A2E94
:100D3800FA0B9A2EFB0B9A2E20008C1CA42EA52EA3
:100D4800A62E382E0030F000F1006D30F200003091
:100D5800F3000030F400F5000030F600F7008431AD
:100D6800A32486310B30FB002630FA005E30890B55
:100D7800BB2EFA0BBB2EFB0BBB2E20008C1CC52EEA
:100D8800C62EC72E382E0030F000F1002730F200B2
:100D98000030F3000030F400F5000030F600F700F2
:100DA8008431A32486310B30FB002630FA005E30F4
:100DB800890BDC2EFA0BDC2EFB0BDC2E20008C1CA6
:100DC800E62EE72EE82E382E0030F000F1006F30C6
:100DD800F2000030F3000030F400F5000030F600B7
:100DE800F7008431A3248631382E8C1CFC2EFD2E6E
:100DF8000F2F5E30F0000030F1005430F200003068
:100E0800F3000030F400F5000030F600F7008431FC
:100E1800A3248631382E1530FB004B30FA00BE3043
:100E2800890B142FFA0B142FFB0B142F0032200000
:100E38008C1C1F2F202F242F833186238631382E98
:100E48000030F000F1007F30F2000030F300003095
:100E5800F400F5000030F600F7008431A324863151
:100E68001530FB004B30FA00BE30890B392FFA0BD6
:100E7800392FFB0B392F003220008C1C442F452FB3
:100E8800462F202F0030F000F1007D30F2000030B6
:100E9800F3000030F400F5000030F600F70084316C
:100EA800A32486311530FB004B30FA00BE30890B85
:100EB8005B2FFA0B5B2FFB0B5B2F003220008C1C87
:100EC800662F672F682F202F0030F000F100663062
:100ED800F2000030F3000030F400F5000030F600B6
:100EE800F7008431A32486311530FB004B30FA001B
:100EF800BE30890B7D2FFA0B7D2FFB0B7D2F003227
:100F080020008C1C882F892F8A2F202F0030F0007A
:100F1800F1005B30F2000030F3000030F400F5001F
:100F28000030F600F7008431A32486311530FB0029
:100F38004B30FA00BE30890B9F2FFA0B9F2FFB0B0B
:100F48009F2F003220008C1CAA2FAB2FAC2F202FF4
:100F58000030F000F1003F30F2000030F3000030C4
:100F6800F400F5000030F600F7008431A324863140
:100F78005B302000DA000030DB002730DC00003076
:100F8800DD00E830DE000330DF008331A92386313D
:100F9800382E80310228613084008330850040304B
:100FA8008600003087001230833152238731193090
:100FB800840084308500A0308600003087004230ED
:100FC8008331522387315B308400843085002030A0
:100FD8008600013087004830833152238731FC0175
:100FE800FD012030840000308500203083314C23FF
:080FF8008731200086310D2E27
:020000040001F9
:04000E00E409FF1EE4
:00000001FF
