:020000040000FA
:08000000803102288731CB2F6B
:100A8E00640080010131890B482D0034FE001200F4
:100A9E001E00FE0B4E2D003420000E148E140E156B
:100AAE008D018E138E178E13080023008C018D017D
:100ABE00073020008C00073021008C0020008D01B3
:100ACE0021008D01073020008E0021008E010800CC
:100ADE00063400344F3400346D340034273400347F
:100AEE006F3400343F3400345B34003466340034E9
:100AFE007D3400347F340034543400347334003485
:100B0E00763400343834003471340034793400349F
:100B1E005E340034583400347C3400345F34003496
:100B2E006F3400347F340034273400347D34003485
:100B3E006D340034663400344F3400345B3400348A
:100B4E00063400343F3400345F3400347C340034D7
:100B5E00583400345E340034793400347134003447
:100B6E007634003438340034543400347334003462
:100B7E003F340034063400345B3400344F340034D8
:100B8E00663400346D3400347D3400342734003440
:100B9E007F3400346F3400345F3400347C340034DE
:100BAE00583400345E3400347934003471340034F7
:100BBE003F340034063400345B3400344F34003498
:100BCE00663400346D3400347D3400342734003400
:100BDE007F3400346F34003471340034793400348F
:100BEE005E340034583400347C3400345F340034C6
:100BFE005F3400347C340034583400345E340034B6
:100C0E0079340034713400347A3021009900853102
:100C1E005C25863185315325863120000C1C182E1B
:100C2E00192E142E8C1C1C2E1D2E142E0C1D202E37
:100C3E00212E142E8E148E18252E282E20000E15E1
:100C4E002A2E20000E110E192D2E302E20000E14DD
:100C5E00322E20000E100C18352E362E322E20007D
:100C6E000C183A2E3B2E4D2E3E30F0000030F10087
:100C7E007330F2000030F3000030F400F500003065
:100C8E00F600F700863161268631362E5E30F00092
:100C9E000030F1005430F2000030F3000030F40068
:100CAE00F5000030F600F700863161268631362ECB
:100CBE00803102282000DA01DB01DE01DF01D801DC
:100CCE00D9018E1370088D008E120E170530760620
:100CDE007704031D732E742E792EA030DA000F3098
:100CEE00DB007D2ED030DA000730DB005B08DD0044
:100CFE005A08DC005C085D04031D862E872E882EA4
:100D0E008D2E0130DC020030DD3B812E8E120E1353
:100D1E0072088D000E138E16053076067704031DAD
:100D2E00992E9A2E9F2EA030DA000F30DB00A32EC4
:100D3E00D030DA000730DB005B08DD005A08DC003B
:100D4E005C085D04031DAC2EAD2EAE2EB32E01300D
:100D5E00DC020030DD3BA72E8E120E13BA2F8D0152
:100D6E008E138E178E13CA2F32033304031DC02E1B
:100D7E00C12EC32EFA01FB01B201B3017A087B0426
:100D8E00031DCA2ECB2EE12E5E085F04031DD02E4E
:100D9E00D12EE12E0130FA000030FB00F801F901EE
:100DAE000130DE000030DF000930D8000030D900FD
:100DBE0058088D007A037B04031DE62EE72EFF2EC6
:100DCE005E085F04031DEC2EED2EFF2E0230FA009E
:100DDE000030FB000330F8000030F9000130DE0077
:100DEE000030DF000C30D8000030D90058088D00DC
:100DFE0002307A067B04031D052F062F1E2F5E0878
:100E0E005F04031D0B2F0C2F1E2F0330FA00003032
:100E1E00FB000230F8000030F9000130DE00003037
:100E2E00DF000630D8000030D90058088D0003309E
:100E3E007A067B04031D242F252FB72E5E085F0430
:100E4E00031D2A2F2B2FB72EFA01FB010130F800BC
:100E5E000030F9000330D8000030D90058088D005A
:100E6E00B72E32033304031D3D2F3E2F402FF801C2
:100E7E00F901B201B30178087904031D472F482FF9
:100E8E005E2F5E085F04031D4D2F4E2F5E2F013027
:100E9E00F8000030F900FA01FB010130DE000030ED
:100EAE00DF000330D8000030D90058088D007803D9
:100EBE007904031D632F642F7C2F5E085F04031DCE
:100ECE00692F6A2F7C2F0230F8000030F9000330B2
:100EDE00FA000030FB000130DE000030DF0006308B
:100EEE00D8000030D90058088D00023078067904F9
:100EFE00031D822F832F9B2F5E085F04031D882FF7
:100F0E00892F9B2F0330F8000030F9000230FA00D1
:100F1E000030FB000130DE000030DF000C30D80066
:100F2E000030D90058088D00033078067904031D6F
:100F3E00A12FA22FB72E5E085F04031DA72FA82F87
:100F4E00B72EF801F9010130FA000030FB0009302C
:100F5E00D8000030D90058088D00B72EF801F901DD
:100F6E00FA01FB01CA2F7508003A0319BF2FB52FDE
:100F7E007408003A0319B62E013A0319BB2E033A30
:100F8E000319382FB52F08006F3084008530850087
:100F9E003C308600003087001C3085314D2587316E
:100FAE00BF30840085308500A03086000030870079
:100FBE004C3085314D2587318B308400853085004E
:100FCE002030860001308700343085314D25873141
:100FDE00F801F901FA01FB01FC01FD01203084004A
:100FEE00003085001C308531472587312000863141
:020FFE000B2EB8
:020000040001F9
:04000E00E409FF1EE4
:00000001FF
