:020000040000FA
:08000000803102288731CF2F67
:10079800640080010131890BCD2B0034FE0012006A
:1007A8001E00FE0BD32B003420000E148E140E15E1
:1007B8008D018E138E178E13080023008C018D0176
:1007C800073020008C00073021008C0020008D01AC
:1007D80021008D01073020008E0021008E010800C5
:1007E800063400344F3400346D3400342734003478
:1007F8006F3400343F3400345B34003466340034E2
:100808007D3400347F34003454340034733400347D
:1008180076340034383400345E30F0000030F100B3
:100828005430F2000030F3000030F400F5000030DE
:10083800F600F7008431B32484311530F9004B30C9
:10084800F800BE30890B262CF80B262CF90B262C29
:10085800003220000C18312C322C2D2C0800713459
:100868000034793400345E340034583400347C3435
:1008780000345F3400346F3400347F34003427345C
:1008880000347D3400346D340034663400344F3421
:1008980000345B340034063400343F3400345F34B1
:1008A80000347C340034583400345E3400347934F5
:1008B800003471340034763400343834003454341D
:1008C8000034733400343F340034063400345B346D
:1008D80000344F340034663400346D3400347D34D1
:1008E8000034273400347F3400346F3400345F34EC
:1008F80000347C340034583400345E3400347934A5
:100908000034713400343F340034063400345B342E
:1009180000344F340034663400346D3400347D3490
:100928000034273400347F3400346F340034713499
:100938000034793400345E340034583400347C3464
:1009480000345F3400345F3400347C34003458346D
:1009580000345E34003479340034713400342000BB
:10096800DE01DF01E201E301DC01DD018E13700825
:100978008D008E120E17053076067704031DC52CE0
:10098800C62CCB2CA030DE000F30DF00CF2CD030AF
:10099800DE000730DF005F08E1005E08E000600865
:1009A8006104031DD82CD92CDA2CDF2C0130E0028D
:1009B8000030E13BD32C8E120E1372088D000E13FB
:1009C8008E16053076067704031DEB2CEC2CF12CE3
:1009D800A030DE000F30DF00F52CD030DE0007300D
:1009E800DF005F08E1005E08E00060086104031DA5
:1009F800FE2CFF2C002D052D0130E0020030E13BDC
:100A0800F92C8E120E130C2E8D018E138E178E1349
:100A18001C2E36033704031D122D132D152DB4017A
:100A2800B501B601B70134083504031D1C2D1D2D71
:100A3800332D62086304031D222D232D332D01302D
:100A4800B4000030B500B201B3010130E20000305B
:100A5800E3000930DC000030DD005C088D00340361
:100A68003504031D382D392D512D62086304031DEB
:100A78003E2D3F2D512D0230B4000030B50003301B
:100A8800B2000030B3000130E2000030E3000C3067
:100A9800DC000030DD005C088D00023034063504CF
:100AA800031D572D582D702D62086304031D5D2DFD
:100AB8005E2D702D0330B4000030B5000230B20056
:100AC8000030B3000130E2000030E3000630DC0003
:100AD8000030DD005C088D00033034063504031D4A
:100AE800762D772D092D62086304031D7C2D7D2D3D
:100AF800092DB401B5010130B2000030B300033054
:100B0800DC000030DD005C088D00092D3603370459
:100B1800031D8F2D902D922DB201B301B601B7019F
:100B280032083304031D992D9A2DB02D62086304F1
:100B3800031D9F2DA02DB02D0130B2000030B30051
:100B4800B401B5010130E2000030E3000330DC00FD
:100B58000030DD005C088D0032033304031DB52D21
:100B6800B62DCE2D62086304031DBB2DBC2DCE2DE2
:100B78000230B2000030B3000330B4000030B500DA
:100B88000130E2000030E3000630DC000030DD0018
:100B98005C088D00023032063304031DD42DD52D98
:100BA800ED2D62086304031DDA2DDB2DED2D0330D6
:100BB800B2000030B3000230B4000030B50001309C
:100BC800E2000030E3000C30DC000030DD005C089F
:100BD8008D00033032063304031DF32DF42D092D47
:100BE80062086304031DF92DFA2D092DB201B30122
:100BF8000130B4000030B5000930DC000030DD0001
:100C08005C088D00092DB201B301B401B5011C2E99
:100C18007508003A0319112E072E7408003A0319B3
:100C2800082D013A03190D2D033A03198A2D072EB1
:100C380008007A30210099008331E123863183311D
:100C4800D823863120000C1C2A2E2B2E262E8C1CF5
:100C58002E2E2F2E262E0C1D322E332E262E8E149F
:100C68008E18372E3A2E20000E153C2E20000E111D
:100C78000E193F2E422E20000E14442E20000E1076
:100C88000C18472E482E442E20000C184C2E4D2EA2
:100C9800092F8C1C502E512E632E3E30F000003050
:100CA800F1007330F2000030F3000030F400F5007A
:100CB8000030F600F7008431B3248631482E0B301B
:100CC800FB002630FA005E30890B682EFA0B682E7E
:100CD800FB0B682E20008C1C722E732E742E482E4F
:100CE8000030F000F1000630F2000030F300003070
:100CF800F400F5000030F600F7008431B3248631A3
:100D08000B30FB002630FA005E30890B892EFA0B77
:100D1800892EFB0B892E20008C1C932E942E952E49
:100D2800482E0030F000F1004F30F2000030F300A0
:100D38000030F400F5000030F600F7008431B324E9
:100D480086310B30FB002630FA005E30890BAA2E64
:100D5800FA0BAA2EFB0BAA2E20008C1CB42EB52E43
:100D6800B62E482E0030F000F1006D30F200003051
:100D7800F3000030F400F5000030F600F70084318D
:100D8800B32486310B30FB002630FA005E30890B25
:100D9800CB2EFA0BCB2EFB0BCB2E20008C1CD52E8A
:100DA800D62ED72E482E0030F000F1002730F20062
:100DB8000030F3000030F400F5000030F600F700D2
:100DC8008431B32486310B30FB002630FA005E30C4
:100DD800890BEC2EFA0BEC2EFB0BEC2E20008C1C56
:100DE800F62EF72EF82E482E0030F000F1006F3066
:100DF800F2000030F3000030F400F5000030F60097
:100E0800F7008431B3248631482E8C1C0C2F0D2F0B
:100E18001F2F5E30F0000030F1005430F200003037
:100E2800F3000030F400F5000030F600F7008431DC
:100E3800B3248631482E1530FB004B30FA00BE3003
:100E4800890B242FFA0B242FFB0B242F00322000B0
:100E58008C1C2F2F302F342F843110248631482EAC
:100E68000030F000F1007F30F2000030F300003075
:100E7800F400F5000030F600F7008431B324863121
:100E88001530FB004B30FA00BE30890B492FFA0BA6
:100E9800492FFB0B492F003220008C1C542F552F53
:100EA800562F302F0030F000F1007D30F200003076
:100EB800F3000030F400F5000030F600F70084314C
:100EC800B32486311530FB004B30FA00BE30890B55
:100ED8006B2FFA0B6B2FFB0B6B2F003220008C1C37
:100EE800762F772F782F302F0030F000F100663002
:100EF800F2000030F3000030F400F5000030F60096
:100F0800F7008431B32486311530FB004B30FA00EA
:100F1800BE30890B8D2FFA0B8D2FFB0B8D2F0032D6
:100F280020008C1C982F992F9A2F302F0030F0001A
:100F3800F1005B30F2000030F3000030F400F500FF
:100F48000030F600F7008431B32486311530FB00F9
:100F58004B30FA00BE30890BAF2FFA0BAF2FFB0BCB
:100F6800AF2F003220008C1CBA2FBB2FBC2F302F84
:100F78000030F000F1003F30F2000030F3000030A4
:100F8800F400F5000030F600F7008431B324863110
:100F9800482E80310228F4308400833085004030A8
:100FA8008600003087001C308331D22387316730B8
:100FB800840084308500A0308600003087004C30E3
:100FC8008331D22387313330840084308500203048
:100FD80086000130870034308331D2238731FC0109
:100FE800FD01203084000030850020308331CC237F
:080FF8008731200086311D2E17
:020000040001F9
:04000E00E409FF1EE4
:00000001FF
