:020000040000FA
:08000000803102288731D12F65
:1005F200640080010131890BFA2A0034FE001200E6
:100602001E00FE0B002B00345434003473340034CB
:10061200763400343834003420000E158E140E1453
:100622008D018E138E178E13080020000C191A2BC1
:100632001B2B202B0130D0070030D13D222BD001C3
:10064200D101080023008C018D01073020008C00AD
:10065200073021008C0020008D0121008D01073020
:1006620020008E0021008E010800452B2000E001B1
:10067200E101552B2000DE01DF01552B2000E001B6
:10068200E101DE01DF01552B7108003A03194A2B03
:10069200552B7008003A0319372B013A03193B2BEB
:1006A200033A03193F2B552B08000A30F0000030A3
:1006B200F10020002D08F3002C08F20083318A2378
:1006C200833171082000AD007008AC002D08F900DC
:1006D2002C08F80078087904031D702B712B722BFB
:1006E200892B20002908F1002808F0002B08F300CC
:1006F2002A08F2000030F400F5000030F600F7009E
:100702008631672683310130F8020030F93B6B2BCA
:100712000800F501F601700871040319912B922B60
:10072200C12BF701F70A9E2B0130F035F10D890B31
:10073200962B0130F4007408F707F11FA12BA22BAE
:10074200952B0130F535F60D890BA32B7108730239
:10075200031DAD2B70087202031CB02BB12BB62BFC
:100762007008F2027108F33B75140130F136F00C97
:10077200890BB72B0130F702031DC02BC12BA22B13
:100782007608F1007508F0000800F401F501F201A5
:10079200F301031020000C1903140030093DF0008E
:1007A200F1017008F6007108F70077087306031D5F
:1007B200DC2B76087206031DDF2BE02BE52B0130C4
:1007C200F4070030F53DE72BF401F5010030750226
:1007D2000B3003197402031CEF2BF02BFD2B77084F
:1007E200F1007608F000F009F10901307005E2002D
:1007F20000307105E300022C7708F3007608F2005E
:10080200CA2B080071340034793400345E34003469
:10081200583400347C3400345F3400346F34003494
:100822007F340034273400347D3400346D34003496
:10083200663400344F3400345B3400340634003400
:100842003F3400345F3400347C3400345834003494
:100852005E34003479340034713400347634003438
:100862003834003454340034733400343F340034A8
:10087200063400345B3400344F34003466340034C0
:100882006D3400347D340034273400347F34003436
:100892006F340034852C8331C623843120006208F2
:1008A2006304031D552C562C952C0130E0000030BA
:1008B200E100952C8331C623843120006203630456
:1008C200031D642C652C952C0130DE000030DF0006
:1008D200952C8331C6238431200062086304031DF2
:1008E200732C742C782C0130E0000030E10062039C
:1008F2006304031D7D2C7E2C952C60036104031D73
:10090200832C842C952C652C7908003A03198A2CA7
:10091200952C7808003A03194C2C013A03195B2CE8
:10092200033A03196A2C952C08003F34003406342C
:1009320000345B3400344F340034663400346D3498
:1009420000347D340034273400347F3400346F3473
:1009520000345F3400347C340034583400345E3464
:100962000034793400347134003471340034793411
:1009720000345E340034583400347C3400345F3444
:1009820000345F3400347C340034583400345E3434
:1009920000347934003471340034063400344F3476
:1009A20000346D340034273400346F3400343F3463
:1009B20000345B340034663400347D3400347F34D8
:1009C2000034212D0030F800F90084314B248431A9
:1009D200200062036304031DEF2CF02C2E2D600314
:1009E2006104031DF52CF62C2E2D0130D0070030AA
:1009F200D13D0030F000F1008331362384312E2DB9
:100A02000130F8000030F90084314B248431200099
:100A120062086304031D0E2D0F2D2E2D5E035F044D
:100A2200031D142D152D2E2D0130D0070030D13D80
:100A32000130F0000030F1008331362384312E2D55
:100A42007B08003A0319262D2E2D7A08003A031945
:100A5200E32C013A0319012D2E2D08007A302100D2
:100A6200990083312323853183310D238531200081
:100A72000C1C3C2D3D2D382D8C1C402D412D382D2C
:100A82000C1D442D452D382D8E148E18492D4C2DBC
:100A920020000E144E2D20000E100E18512D542D34
:100AA20020000E15562D20000E110230F0000030ED
:100AB200F1008331362385312000C401C501450888
:100AC200F1004408F0000030F200F3000030F400BE
:100AD200F5000030F600F7008631672685310030D8
:100AE200FA00FB008431E22485318A2D0830C400EB
:100AF2000030C5009B2D0130C4000030C5009B2D85
:100B02000930C4000030C5000130D0000030D100EF
:100B12009B2D20005108003A0319902D9B2D50085F
:100B2200013A0319772D033A03197C2D013A03196F
:100B3200812D9B2D440845040319A02DA12DD92DEB
:100B42000C18A42DA52DD92D8C1CA82DA92DD92D7D
:100B520083311623853120005108803AFC00813010
:100B62007C02031DB62DF4305002031CB92DBA2DA0
:100B7200D92D20004508A9004408A8005430AA0035
:100B82000030AB00E830AC000330AD0083315623B7
:100B9200853120004508A9004408A8000030AA00B9
:100BA200AB00E830AC000330AD0083315623853111
:100BB2002000440845040319DF2DE02D182E0C1CDB
:100BC200E32DE42D182E8C18E72DE82D182E8331F5
:100BD2001623853120005108803AFC0081307C02C6
:100BE200031DF52DF4305002031CF82DF92D182E9B
:100BF20020004508A9004408A8006230AA0000307D
:100C0200AB00E830AC000330AD00833156238531B0
:100C120020004508A9004408A8000030AA00AB0043
:100C2200E830AC000330AD0083315623853120001B
:100C32004408450403191E2E1F2E592E0C18222E6D
:100C4200232E592E8C18262E272E592E8331162309
:100C5200853120005108803AFC0081307C02031D5E
:100C6200342EF4305002031C372E382E592E200019
:100C72004508A9004408A8003630AA000030AB009D
:100C8200E830AC000330AD008331562385310130AA
:100C920020004404A80000304504A9000030AA0046
:100CA200AB00E830AC000330AD0083315623853110
:100CB20020004408450403195F2E602E602D0C1C91
:100CC200632E642E602D602D803102282000A20147
:100CD200A301A601A701A001A1018E1370088D0036
:100CE2008E120E17053076067704031D792E7A2EA2
:100CF2007F2EB830A2000B30A300832EE830A20072
:100D02000330A3002308A5002208A4002408250418
:100D1200031D8C2E8D2E8E2E932E0130A4020030B8
:100D2200A53B872E8E120E1372088D000E138E169F
:100D3200053076067704031D9F2EA02EA52EB8300F
:100D4200A2000B30A300A92EE830A2000330A300BA
:100D52002308A5002208A40024082504031DB22E9E
:100D6200B32EB42EB92E0130A4020030A53BAD2E15
:100D72008E120E13C02F8D018E138E178E13D02F4D
:100D82005C035D04031DC62EC72EC92EDA01DB01EA
:100D9200DC01DD015A085B04031DD02ED12EE72EA3
:100DA20026082704031DD62ED72EE72E0130DA009F
:100DB2000030DB00D801D9010130A6000030A700C5
:100DC2000930A0000030A10020088D005A035B0406
:100DD200031DEC2EED2E052F26082704031DF22EEF
:100DE200F32E052F0230DA000030DB000330D8008A
:100DF2000030D9000130A6000030A7000C30A0005E
:100E02000030A10020088D0002305A065B04031D49
:100E12000B2F0C2F242F26082704031D112F122F0E
:100E2200242F0330DA000030DB000230D80000301B
:100E3200D9000130A6000030A7000630A000003023
:100E4200A10020088D0003305A065B04031D2A2FDF
:100E52002B2FBD2E26082704031D302F312FBD2E28
:100E6200DA01DB010130D8000030D9000330A000E4
:100E72000030A10020088D00BD2E5C035D04031D1F
:100E8200432F442F462FD801D901DC01DD01580838
:100E92005904031D4D2F4E2F642F26082704031DCE
:100EA200532F542F642F0130D8000030D900DA01BB
:100EB200DB010130A6000030A7000330A0000030A3
:100EC200A10020088D0058035904031D692F6A2FC1
:100ED200822F26082704031D6F2F702F822F0230C6
:100EE200D8000030D9000330DA000030DB000130D6
:100EF200A6000030A7000630A0000030A1002008A4
:100F02008D00023058065904031D882F892FA12F06
:100F120026082704031D8E2F8F2FA12F0330D80000
:100F22000030D9000230DA000030DB000130A600C8
:100F32000030A7000C30A0000030A10020088D0076
:100F4200033058065904031DA72FA82FBD2E2608CB
:100F52002704031DAD2FAE2FBD2ED801D9010130BC
:100F6200DA000030DB000930A0000030A1002008C8
:100F72008D00BD2ED801D901DA01DB01D02F750811
:100F8200003A0319C52FBB2F7408003A0319BC2E6F
:100F9200013A0319C12E033A03193E2FBB2F080051
:100FA2000530840083308500683086000030870079
:100FB20008308231FF2287319630840084308500E8
:100FC200A0308600003087004C308231FF2287310A
:100FD2000330840084308500203086000130870091
:100FE20048308231FF22873146308400003085004C
:0E0FF20022308231F9228731200085312F2DE7
:020000040001F9
:04000E00E409FF1EE4
:00000001FF
