:020000040000FA
:08000000803102288731CD2F69
:100DA000640080010131890BD12E0034FE00120055
:100DB0001E00FE0BD72E003420000E148E140E15CC
:100DC0008D018E138E178E13080023008C018D0168
:100DD000073020008C00073021008C0020008D019E
:100DE00021008D01073020008E0021008E010800B7
:100DF00071340034793400345E34003458340034B3
:100E00007C3400345F3400346F3400347F34003479
:100E1000273400347D3400346D34003466340034BB
:100E20004F3400345B340034063400343F34003433
:100E30003F340034063400345B3400344F34003423
:100E4000663400346D3400347D340034273400348B
:100E50007F3400346F3400345F3400347C34003429
:100E6000583400345E340034793400347134003442
:100E70003F3400345B340034663400347D34003455
:100E80007F34003454340034733400347634003406
:100E9000383400347A30210099008631E5268731D4
:100EA0008631DC26873120000C1C572F582F532FFA
:100EB0008C1C5B2F5C2F532F0C1D5F2F602F532F2B
:100EC0008E148E18642F672F20000E15692F2000B6
:100ED0000E110E196C2F6F2F20000E14712F200091
:100EE0000E108C18742F752F712F8C18782F792F66
:100EF0007D2F0E100E158E14752F0E140E158E10DC
:100F0000752F803102285F3400347C34003458342B
:100F100000345E3400347934003471340034763473
:100F200000343834003454340034733400343F34E3
:100F30000034063400345B3400344F3400346634FB
:100F400000346D3400347D340034273400347F3471
:100F500000346F34003471340034793400345E343A
:100F60000034583400347C3400345F3400345F344F
:100F700000347C340034583400345E340034793426
:100F8000003471340034063400344F3400346D348E
:100F90000034273400346F34003418308400873034
:100FA0008500203086000030870032308631D6261A
:100FB00087318330840087308500A0308600003080
:100FC00087004A308631D6268731F8308400863053
:100FD0008500203086000130870020308631D626FB
:100FE0008731F001F101F201F30152308400003049
:100FF00085001E308631D0268731200087314A2F68
:020000040001F9
:04000E00E409FF1EE4
:00000001FF
