:020000040000FA
:08000000803102288731C92F6D
:100D1800640080010131890B8D2E0034FE00120021
:100D28001E00FE0B932E003420000E158E140E1498
:100D38008D018E138E178E13080023008C018D01F0
:100D4800073020008C00073021008C0020008D0126
:100D580021008D01073020008E0021008E0108003F
:100D6800063400344F3400346D34003427340034F2
:100D78006F3400343F3400345B340034663400345C
:100D88007D3400347F3400345434003473340034F8
:100D98007634003438340034DE2EF801F901EE2EB2
:100DA8002000E401E501EE2EF801F9012000E4013C
:100DB800E501EE2E7D08003A0319E32EEE2E7C089D
:100DC800003A0319D12E013A0319D42E033A031914
:100DD800D82EEE2E080071340034793400345E3495
:100DE8000034583400347C3400345F3400346F34B9
:100DF80000347F340034273400347D3400346D34BB
:100E08000034663400344F3400345B340034063424
:100E180000343F3400345F3400347C3400345834B8
:100E280000345E340034793400347134003476345C
:100E380000343834003454340034733400343F34CC
:100E48000034063400345B3400344F3400346634E4
:100E580000346D3400347D340034273400347F345A
:100E680000346F3400345F3400347C340034583438
:100E780000345E34003479340034713400343F3443
:100E88000034063400345B3400344F3400346634A4
:100E980000346D3400347D340034273400347F341A
:100EA80000346F34003471340034793400345E34E3
:100EB8000034583400347C3400345F3400345F34F8
:100EC80000347C340034583400345E3400347934CF
:100ED8000034713400347A30210099008631A1261B
:100EE800873186319826873120000C1C7C2F7D2F76
:100EF800782F8C1C802F812F782F0C1D842F852F05
:100F0800782F8E148E18892F8C2F20000E148E2F78
:100F180020000E100E18912F942F20000E15962FDA
:100F280020000E110230FC000030FD008631D02672
:100F3800873120000C1CA12FA22FA62F8C18A52FBB
:100F4800A62F9D2FC801C901CA01CB01CC01CD0133
:100F5800CE01CF01D001D101D201D3010C1CB52F94
:100F6800B62FBC2F8C18B92FBA2FBC2F0E118E1488
:100F78000C1CBF2FC02FB22F8C1CC32FC42FB22F15
:100F88000E158E10B22F80310228B43084008630BE
:100F9800850020308600003087001C30863192267C
:100FA80087312330840087308500A03086000030E8
:100FB80087004C30863192268731EF3084008630A6
:100FC8008500203086000130870034308631922633
:100FD800873170308400003085000C3086318C26D3
:100FE80087315430840000308500163086318C26D5
:080FF8008731200087316F2FC3
:020000040001F9
:04000E00E409FF1EE4
:00000001FF
