:020000040000FA
:08000000803102288731DD2F59
:10060200640080010131890B022B0034FE001200CC
:100612001E00FE0B082B003420000E158E140E1443
:100622008D018E138E178E13080023008C018D010D
:10063200073020008C00073021008C0020008D0143
:1006420021008D01073020008E0021008E0108005C
:10065200382B2000E801E901482B2000E601E701E0
:10066200482B2000E801E901E601E701482B710867
:10067200003A03193D2B482B7008003A03192A2B24
:10068200013A03192E2B033A0319322B482B080087
:100692000A30F0000030F10020002D08F3002C0891
:1006A200F20083317D23833171082000AD00700890
:1006B200AC002D08F9002C08F80078087904031D15
:1006C200632B642B652B7C2B20002908F100280862
:1006D200F0002B08F3002A08F2000030F400F500C5
:1006E2000030F600F7008631732683310130F802BC
:1006F2000030F93B5E2B0800F501F6017008710429
:100702000319842B852BB42BF701F70A912B0130A7
:10071200F035F10D890B892B0130F4007408F707CD
:10072200F11F942B952B882B0130F535F60D890B93
:10073200962B71087302031DA02B70087202031C12
:10074200A32BA42BA92B7008F2027108F33B75149A
:100752000130F136F00C890BAA2B0130F702031D90
:10076200B32BB42B952B7608F1007508F000080026
:10077200F401F501F201F301031020000C19031436
:100782000030093DF000F1017008F6007108F70031
:1007920077087306031DCF2B76087206031DD22B32
:1007A200D32BD82B0130F4070030F53DDA2BF401BE
:1007B200F501003075020B3003197402031CE22BA1
:1007C200E32BF02B7708F1007608F000F009F1092D
:1007D20001307005EA0000307105EB00F52B770857
:1007E200F3007608F200BD2B0800302C8331B923C8
:1007F200833120006A086B04031D002C012C402C5D
:100802000130E8000030E900402C8331B923833104
:1008120020006A036B04031D0F2C102C402C0130A6
:10082200E6000030E700402C8331B92383312000F9
:100832006A086B04031D1E2C1F2C232C0130E800B8
:100842000030E9006A036B04031D282C292C402C7C
:1008520068036904031D2E2C2F2C402C102C7908C0
:10086200003A0319352C402C7808003A0319F72B6B
:10087200013A0319062C033A0319152C402C0800DF
:1008820071340034793400345E3400345834003426
:100892007C3400345F3400346F3400347F340034ED
:1008A200273400347D3400346D340034663400342F
:1008B2004F3400345B340034063400343F340034A7
:1008C2005F3400347C340034583400345E340034F5
:1008D20079340034713400347634003438340034DE
:1008E20054340034733400347134003479340034B5
:1008F2005E340034583400347C3400345F340034C5
:100902005F3400347C340034583400345E340034B4
:1009120079340034713400343F3400340634003406
:100922005B3400344F340034663400346D340034A8
:100932007D340034273400347F3400346F34003483
:100942005F3400347C340034583400345E34003474
:1009520079340034713400343F34003406340034C6
:100962005B3400344F340034663400346D34003468
:100972007D340034273400347F3400346F34003443
:10098200063400344F3400346D34003427340034DC
:100992006F3400343F3400345B3400346634003446
:1009A2007D3400347F3400345434003473340034E2
:1009B2007634003438340034031020000C18031449
:1009C2000030093DFA00FB017A08B0007B08B10053
:1009D20003108C1803140030093DFA00FB017A0859
:1009E200B2007B08B3000A30F0000030F1002D089D
:1009F200F3002C08F20083317D238431710820003A
:100A0200AD007008AC002D08B5002C08B400340805
:100A12003504031D0D2D0E2D0F2D752D2908F10006
:100A22002808F0002B08F3002A08F2000030F40036
:100A3200F5000030F600F70086317326843100306D
:100A4200F800F9008331F6238431031020000C18DA
:100A520003140030093DFA00FB0131087B06031D37
:100A6200342D30087A060319372D382D492D2E1DC5
:100A72003B2D3C2D492D0230F0000030F100833136
:100A82002923843101302000A8000030A900772DED
:100A920003108C1803140030093DFA00FB013308DF
:100AA2007B06031D562D32087A060319592D5A2D3D
:100AB2005F2DAE1C5D2D5E2D5F2D3C2D6A036B04F8
:100AC200031D642D652D702D68036904031D6A2DB5
:100AD2006B2D702D2E1C6E2D6F2D702D3C2D013027
:100AE200B4020030B53B082DA801A90108007A30F4
:100AF2002100990083311623853183310D238531FD
:100B020020000C1C852D862D812D8C1C892D8A2D73
:100B1200812D0C1D8D2D8E2D812D8E148E18922DD2
:100B2200952D20000E14972D20000E100E189A2DD0
:100B32009D2D20000E159F2D20000E110230F00079
:100B42000030F10083312923853120000C18AA2DB1
:100B5200AB2DA62DC001C101C201C301C401C50153
:100B6200C601C701C801C901CA01CB010C18BA2DBF
:100B7200BB2D132E8C1CBE2DBF2D132E3E30F0002C
:100B82000030F1007330F2000030F3000030F40066
:100B9200F5000030F600F70086317326853120001B
:100BA2000C18D42DD52D132E8C18D82DD92D132EEB
:100BB20001302000CC000030CD0020004C35C03E7A
:100BC20086008701403FA800413FA9000030AA00EB
:100BD200AB00E830AC000330AD000230AE000030B4
:100BE200AF008431DD24853120002908CB0028089C
:100BF200CA004A034B04031DFF2D002E012EA62D11
:100C02000230CC070030CD3D4D08803AFC008030E8
:100C12007C02031D0E2E0A304C02031C112E122ED2
:100C2200DE2DD92D0C1C162E172EB72D8C1C1A2E2C
:100C32001B2EB72D5E30F0000030F1005430F20070
:100C42000030F3000030F400F5000030F600F70049
:100C520086317326853120000C1C302E312EB72DA3
:100C62008C18342E352EB72DCC01CD014C35C03E1B
:100C720086008701403FA800413FA9000030AA003A
:100C8200AB00E830AC000330AD000230AE00003003
:100C9200AF008431DD24853120002908CB002808EB
:100CA200CA004A034B04031D572E582E682E5E308D
:100CB200A8000030A9005430AA000030AB00E83090
:100CC200AC000330AD00833149238531A62D0230BB
:100CD200CC070030CD3DCD1F6F2E702E372E352E16
:100CE200803102282000A201A301A601A701A001D0
:100CF200A1018E1370088D008E120E170530760634
:100D02007704031D852E862E8B2EA030A2000F3075
:100D1200A3008F2ED030A2000730A3002308A50025
:100D22002208A40024082504031D982E992E9A2E29
:100D32009F2E0130A4020030A53B932E8E120E137B
:100D420072088D000E138E16053076067704031D89
:100D5200AB2EAC2EB12EA030A2000F30A300B52EC8
:100D6200D030A2000730A3002308A5002208A40067
:100D720024082504031DBE2EBF2EC02EC52E013011
:100D8200A4020030A53BB92E8E120E13CC2F8D017A
:100D92008E138E178E13DC2F64036504031DD22E6F
:100DA200D32ED52EE201E301E401E50162086304DA
:100DB200031DDC2EDD2EF32E26082704031DE22E52
:100DC200E32EF32E0130E2000030E300E001E10106
:100DD2000130A6000030A7000930A0000030A100B9
:100DE20020088D0062036304031DF82EF92E112FD3
:100DF20026082704031DFE2EFF2E112F0230E200CB
:100E02000030E3000330E0000030E1000130A600D2
:100E12000030A7000C30A0000030A10020088D0097
:100E2200023062066304031D172F182F302F260885
:100E32002704031D1D2F1E2F302F0330E200003028
:100E4200E3000230E0000030E1000130A600003093
:100E5200A7000630A0000030A10020088D0003305A
:100E620062066304031D362F372FC92E2608270476
:100E7200031D3C2F3D2FC92EE201E3010130E000AA
:100E82000030E1000330A0000030A10020088D00F6
:100E9200C92E64036504031D4F2F502F522FE0010A
:100EA200E101E401E50160086104031D592F5A2F95
:100EB200702F26082704031D5F2F602F702F01302B
:100EC200E0000030E100E201E3010130A600003061
:100ED200A7000330A0000030A10020088D006003AD
:100EE2006104031D752F762F8E2F26082704031DFC
:100EF2007B2F7C2F8E2F0230E0000030E100033088
:100F0200E2000030E3000130A6000030A700063006
:100F1200A0000030A10020088D00023060066104AC
:100F2200031D942F952FAD2F26082704031D9A2FFA
:100F32009B2FAD2F0330E0000030E1000230E200D1
:100F42000030E3000130A6000030A7000C30A00002
:100F52000030A10020088D00033060066104031DEB
:100F6200B32FB42FC92E26082704031DB92FBA2F79
:100F7200C92EE001E1010130E2000030E300093056
:100F8200A0000030A10020088D00C92EE001E1017F
:100F9200E201E301DC2F7508003A0319D12FC72FB4
:100FA2007408003A0319C82E013A0319CD2E033AE8
:100FB20003194A2FC72F08008D3084008430850022
:100FC200A0308600003087005030833107238731FC
:100FD2004130840084308500203086000130870053
:100FE2004C308331072387314E3084000030850036
:0E0FF200223083310123873120008531782D94
:020000040001F9
:04000E00E409FF1EE4
:00000001FF
