:020000040000FA
:08000000803102288731CA2F6C
:10029200640080010131890B4A290034FE001200FA
:1002A2001E00FE0B5029003420000E158E140E1471
:1002B2008D018E138E178E13080023008C018D0181
:1002C200073020008C00073021008C0020008D01B7
:1002D20021008D01073020008E0021008E010800D0
:1002E200FC01FD01781C762977297B297A08FC0715
:1002F2007B08FD3D0130FA35FB0D890B7C2901306D
:10030200F936F80C890B812978087904031D8A29AA
:100312008B2973297D08F9007C08F80008009F29C1
:100322002000E801E901AF292000E601E701AF2939
:100332002000E801E901E601E701AF297108003A6E
:100342000319A429AF297008003A03199129013A27
:1003520003199529033A03199929AF290800713421
:100362000034793400345E340034583400347C3440
:1003720000345F3400346F3400347F340034273467
:1003820000347D3400346D340034663400344F342C
:1003920000345B340034063400343F34003420002F
:1003A2002908B3002808B200B31FD829D929DA29AD
:1003B200F3292B08F1002A08F0002D08F3002C087D
:1003C200F2002F08F5002E08F4003108F70030087B
:1003D200F600843111248131FF302000B207FF3052
:1003E200B33DD52908005F3400347C3400345834DE
:1003F20000345E340034793400347134003476349D
:1004020000343834003454340034733400347134DA
:100412000034793400345E340034583400347C348F
:1004220000345F3400345F3400347C340034583498
:1004320000345E34003479340034713400340634CC
:1004420000344F3400346D340034273400346F34B8
:100452000034F501F601700871040319312A322AB9
:10046200612AF701F70A3E2A0130F035F10D890BB6
:10047200362A0130F4007408F707F11F412A422A94
:10048200352A0130F535F60D890B432A71087302BE
:10049200031D4D2A70087202031C502A512A562A43
:1004A2007008F2027108F33B75140130F136F00C5A
:1004B200890B572A0130F702031D602A612A422A5A
:1004C2007608F1007508F0000800F401F501F20168
:1004D200F301031020000C1903140030093DF00051
:1004E200F1017008F6007108F70077087306031D22
:1004F2007C2A76087206031D7F2A802A852A01300B
:10050200F4070030F53D872AF401F5010030750249
:100512000B3003197402031C8F2A902A9D2A770834
:10052200F1007608F000F009F10901307005EA00E7
:1005320000307105EB00A22A7708F3007608F2007A
:100542006A2A08003F340034063400345B34003435
:100552004F340034663400346D3400347D3400345A
:10056200273400347F3400346F3400345F34003475
:100572007C340034583400345E340034793400342E
:10058200713400343F340034063400345B340034B8
:100592004F340034663400346D3400347D3400341A
:1005A200273400347F3400346F3400343F34003455
:1005B2005B340034663400347D3400347F340034DC
:1005C2005434003473340034763400343834003414
:1005D200232B82316622823120006A086B04031DBC
:1005E200F32AF42A332B0130E8000030E900332BE0
:1005F20082316622823120006A036B04031D022BC2
:10060200032B332B0130E6000030E700332B82311D
:100612006622823120006A086B04031D112B122B03
:10062200162B0130E8000030E9006A036B04031D59
:100632001B2B1C2B332B68036904031D212B222B3C
:10064200332B032B7908003A0319282B332B780814
:10065200003A0319EA2A013A0319F92A033A03195B
:10066200082B332B0800031020000C180314003051
:10067200093DB000B1013008B2003108B3000310E7
:100682008C1803140030093DB000B1013008B400E9
:100692003108B50003100C1903140030093DB000F5
:1006A200B1013008B6003108B700E830F00003307D
:1006B200F1002D08F3002C08F20082312A22833146
:1006C2007108F9007008F8003C30FA000030FB00B5
:1006D20081317121833178082000B0007908B1009E
:1006E2000A30F0000030F1002D08F3002C08F2006F
:1006F20082312A228331700820003007AC00710851
:10070200313DAD002D08B9002C08B8003808390475
:10071200031D8C2B8D2B8E2B0E2C2908F100280803
:10072200F0002B08F3002A08F2000030F400F50074
:100732000030F600F7008431112483310030F800D4
:10074200F9008231E9228331031020000C180314CE
:100752000030093DB000B10133083106031DB32B4F
:10076200320830060319B62BB72BC82B2E1DBA2B15
:10077200BB2BC82B0230F0000030F10081319021F8
:10078200833120003908A9003808A800102C031072
:100792008C1803140030093DB000B1013508310650
:1007A200031DD52B340830060319D82BD92BDE2B89
:1007B200AE1CDC2BDD2BDE2BBB2B6A036B04031D73
:1007C200E32BE42BF32B68036904031DE92BEA2BCB
:1007D200F32B0C1DED2BEE2BF32B2E1CF12BF22BFE
:1007E200F32BBB2B03100C1903140030093DB0008E
:1007F200B10137083106031D002C360830060319F3
:10080200032C042C092C2E1C072C082C092CC22B7F
:100812000130B8020030B93B872BA801A9010800BA
:100822002000A201A301A601A701A001A1018E132C
:1008320070088D008E120E17053076067704031DA0
:10084200232C242C292CB830A2000B30A3002D2CF1
:10085200E830A2000330A3002308A5002208A40068
:1008620024082504031D362C372C382C3D2C01304E
:10087200A4020030A53B312C8E120E1372088D009B
:100882000E138E16053076067704031D492C4A2C6A
:100892004F2CB830A2000B30A300532CE830A2003A
:1008A2000330A3002308A5002208A400240825047D
:1008B200031D5C2C5D2C5E2C632C0130A4020030E5
:1008C200A53B572C8E120E136A2D8D018E138E1797
:1008D2008E137A2D64036504031D702C712C732C06
:1008E200E201E301E401E50162086304031D7A2CDD
:1008F2007B2C912C26082704031D802C812C912C03
:100902000130E2000030E300E001E1010130A60025
:100912000030A7000930A0000030A10020088D009F
:1009220062036304031D962C972CAF2C2608270420
:10093200031D9C2C9D2CAF2C0230E2000030E30002
:100942000330E0000030E1000130A6000030A700D3
:100952000C30A0000030A10020088D000230620699
:100962006304031DB52CB62CCE2C26082704031DC8
:10097200BB2CBC2CCE2C0330E2000030E300023052
:10098200E0000030E1000130A6000030A700063090
:10099200A0000030A10020088D000330620663042D
:1009A200031DD42CD52C672C26082704031DDA2C12
:1009B200DB2C672CE201E3010130E0000030E100B2
:1009C2000330A0000030A10020088D00672C6403D2
:1009D2006504031DED2CEE2CF02CE001E101E40195
:1009E200E50160086104031DF72CF82C0E2D260882
:1009F2002704031DFD2CFE2C0E2D0130E0000030DB
:100A0200E100E201E3010130A6000030A70003305B
:100A1200A0000030A10020088D0060036104031DC6
:100A2200132D142D2C2D26082704031D192D1A2DE4
:100A32002C2D0230E0000030E1000330E2000030F3
:100A4200E3000130A6000030A7000630A00000300D
:100A5200A10020088D00023060066104031D322DC2
:100A6200332D4B2D26082704031D382D392D4B2DF0
:100A72000330E0000030E1000230E2000030E30029
:100A82000130A6000030A7000C30A0000030A10009
:100A920020088D00033060066104031D512D522D84
:100AA200672C26082704031D572D582D672CE001BB
:100AB200E1010130E2000030E3000930A000003023
:100AC200A10020088D00672CE001E101E201E301B1
:100AD2007A2D7508003A03196F2D652D7408003AB6
:100AE2000319662C013A03196B2C033A0319E82CFB
:100AF200652D08007A302100990081315E2185310F
:100B020081315521853120000C1C882D892D842DA1
:100B12008C1C8C2D8D2D842D0C1D902D912D842DB2
:100B220020008E148E18962D992D20000E149B2DC8
:100B320020000E100E189E2DA12D20000E15A32DA3
:100B420020000E110230F0000030F10081319021BE
:100B52008531FF302000CE00FF30CF0020000C1C7A
:100B6200B32DB42DC92D8C18B72DB82DC92D4030F9
:100B7200F0000030F1004030F2000030F3000030AD
:100B8200F400F5000030F600F700843111248531BD
:100B920020000C18CD2DCE2DAF2D8C18D12DD22D9D
:100BA200AF2D4030A8000030A9004030AA0000302C
:100BB200AB00E830AC000330AD000130AE000030D5
:100BC200AF0083313423853120002908D30028085F
:100BD200D2005308803ABA0080303A02031DF32D46
:100BE20001305202031CF62DF72DC42E0B302000CB
:100BF200BB002630BA005D30890BFD2DBA0BFD2DEE
:100C0200BB0BFD2D003201302000D0000030D1009E
:100C120040302000A8000030A9005035C03E8600B8
:100C22008701403FAA00413FAB00E830AC000330EF
:100C3200AD000130AE000030AF0083313423853186
:100C420020002908D3002808D2005308803ABA00AD
:100C520080303A02031D2F2E01305202031C322E25
:100C6200332E562E01302000CE070030CF3D4030CB
:100C7200A8000030A9005035C03E86008701403FE1
:100C8200AA00413FAB005308AD005208AC0001304E
:100C9200AE000030AF0083313423853120002908B3
:100CA200D3002808D200D201D301023020004E0620
:100CB2004F04031D5D2E5E2EB22E5108F90050081E
:100CC200F8003C30FA000030FB008131712185319F
:100CD20079082000A9007808A8004030AA00003056
:100CE200AB005035C03E86008701403FAC00413F1B
:100CF200AD000230AE000030AF000530B000003071
:100D0200B1008131D021853120000C1C892E8A2E20
:100D1200852E8C188D2E8E2E852E5108F9005008A6
:100D2200F8003C30FA000030FB008131712185313E
:100D320079082000A9007808A8004030AA000030F5
:100D4200AB004030AC000030AD000130AE000030EE
:100D5200AF000130B0000030B1008131D0218531C7
:100D6200912D0130D0070030D13D5108803ABA00B0
:100D720080303A02031DBF2E07305002031CC22EE0
:100D8200C32E092E042E00302000A800A9004030F6
:100D9200AA000030AB00E830AC000330AD000130F7
:100DA200AE000030AF0083313423853120002908A2
:100DB200D3002808D2005308803ABA0080303A02A1
:100DC200031DE52E01305202031CE82EE92EAF2D41
:100DD2000B302000BB002630BA005D30890BEF2EAD
:100DE200BA0BEF2EBB0BEF2E003201302000D000E9
:100DF2000030D10000302000A800A9005035C03ECC
:100E020086008701403FAA00413FAB00E830AC00BA
:100E12000330AD000130AE000030AF008331342327
:100E2200853120002908D3002808D2005308803ACF
:100E3200BA0080303A02031D202F01305202031CF7
:100E4200232F242F562F01302000CE070030CF3D14
:100E52000030A800A9005035C03E86008701403FFF
:100E6200AA00413FAB005308AD005208AC0001306C
:100E7200AE000030AF0083313423853120002908D1
:100E8200D3002808D2005308803ABA0080303A02D0
:100E9200031D4D2F01305202031C502F512F562F8C
:100EA20001302000CE070030CF3D023020004E0638
:100EB2004F04031D5D2F5E2FB62F5108F900500815
:100EC200F8003C30FA000030FB008131712185319D
:100ED20079082000A9007808A8000030AA00AB0019
:100EE2005035C03E86008701403FAC00413FAD0017
:100EF2000130AE000030AF000530B0000030B1006C
:100F02008131D021853120000C1C882F892F842F1C
:100F12008C188C2F8D2F842F0630BA0050083A027D
:100F2200F80051090318890AF9003C30FA00003030
:100F3200FB0081317121853179082000A9007808F0
:100F4200A8004030AA000030AB004030AC000030B6
:100F5200AD000130AE000030AF000130B000003013
:100F6200B1008131D0218531912D0130D00700307F
:100F7200D13D5108803ABA0080303A02031DC32F96
:100F820007305002031CC62FC72FFB2EF62E8031CE
:100F92000228A330840082308500A0308600003011
:100FA2008700463081314F218731F430840081300F
:100FB20085002030860001308700363081314F2194
:100FC2008731B030840081308500A0308600013046
:100FD2008700203081314F21873152308400003028
:100FE20085001E308131492187312100E601E70168
:0E0FF200E801E901EA01EB01200085317B2DC9
:020000040001F9
:04000E00E409FF1EE4
:00000001FF
