:020000040000FA
:08000000803102288731CE2F68
:1000120020000E148E140E158D018E138E178E1362
:100022000800F601F31F162817281E28F209F30903
:10003200F20A0319F30AF601F60AF11F212822280F
:100042002728F009F109F00A0319F10A700871046E
:1000520003192C282D285628F501F50A39280130D4
:10006200F035F10D890B31280130F4007408F507E1
:10007200F11F3C283D28302871087302031D4328D4
:1000820070087202031C462847284B287008F202A7
:100092007108F33B0130F136F00C890B4C2801302A
:1000A200F502031D552856283D28760803195A28BB
:1000B2005B286028F209F309F20A0319F30A7308AC
:1000C200F1007208F00008002000A101F71F6A2861
:1000D2006B287228F609F709F60A0319F70AA10133
:1000E200A10AF91F752876287F28F809F909F80A64
:1000F2000319F90A0130FA007A08A106A201A30144
:1001020076087704031986288728B628A001A00A52
:1001120093280130F635F70D890B8B280130FA0050
:100122007A08A007F71F962897288A280130A23557
:10013200A30D890B982877087902031DA228760857
:100142007802031CA528A628AB287608F8027708AF
:10015200F93B22140130F736F60C890BAC2801303A
:10016200A002031DB528B628972821080319BA282A
:10017200BB28C028A209A309A20A0319A30A2308BB
:10018200F7002208F6000800031020000C180314E0
:100192000030093DFA00FB017A08B0007B08B1008B
:1001A20003108C1803140030093DFA00FB017A0891
:1001B200B2007B08B3000A30F0000030F1002D08D5
:1001C200F3002C08F2008E31F626803171082000EF
:1001D200AD007008AC002D08B5002C08B40034083E
:1001E2003504031DF528F628F7285D292908F100B2
:1001F2002808F0002B08F3002A08F2000030F4006F
:10020200F5000030F600F70081315E2180310030C8
:10021200F800F9008F31B5278031031020000C1847
:1002220003140030093DFA00FB0131087B06031D6F
:100232001C2930087A0603191F29202931292E1D6D
:100242002329242931290230F0000030F1008E31B7
:100252005C26803101302000A8000030A9005D2911
:1002620003108C1803140030093DFA00FB01330817
:100272007B06031D3E2932087A06031941294229C9
:100282004729AE1C45294629472924296A036B04BC
:10029200031D4C294D29582968036904031D52295D
:1002A200532958292E1C5629572958292429013007
:1002B200B4020030B53BF02808002000A201A301DF
:1002C200A601A701A001A1018E1370088D008E1254
:1002D2000E17053076067704031D702971297629D9
:1002E200A030A2000F30A3007A29D030A20007303C
:1002F200A3002308A5002208A40024082504031D46
:100302008329842985298A290130A4020030A53B4A
:100312007E298E120E1372088D000E138E16053072
:1003220076067704031D962997299C29A030A200FE
:100332000F30A300A029D030A2000730A300230869
:10034200A5002208A40024082504031DA929AA291E
:10035200AB29B0290130A4020030A53BA4298E129A
:100362000E13B72A8D018E138E178E13C72A6403BC
:100372006504031DBD29BE29C029E201E301E40190
:10038200E50162086304031DC729C829DE2926087E
:100392002704031DCD29CE29DE290130E2000030D9
:1003A200E300E001E1010130A6000030A7000930BE
:1003B200A0000030A10020088D0062036304031D29
:1003C200E329E429FC2926082704031DE929EA294F
:1003D200FC290230E2000030E3000330E00000308C
:1003E200E1000130A6000030A7000C30A000003070
:1003F200A10020088D00023062066304031D022A58
:10040200032A1B2A26082704031D082A092A1B2A55
:100412000330E2000030E3000230E0000030E1008F
:100422000130A6000030A7000630A0000030A10075
:1004320020088D00033062066304031D212A222A4C
:10044200B42926082704031D272A282AB429E201F1
:10045200E3010130E0000030E1000330A000003091
:10046200A10020088D00B42964036504031D3A2A03
:100472003B2A3D2AE001E101E401E5016008610453
:10048200031D442A452A5B2A26082704031D4A2AFB
:100492004B2A5B2A0130E0000030E100E201E30177
:1004A2000130A6000030A7000330A0000030A100F8
:1004B20020088D0060036104031D602A612A792AE5
:1004C20026082704031D662A672A792A0230E000DB
:1004D2000030E1000330E2000030E3000130A6000A
:1004E2000030A7000630A0000030A10020088D00D7
:1004F200023060066104031D7F2A802A982A26089A
:100502002704031D852A862A982A0330E00000303A
:10051200E1000230E2000030E3000130A6000030CA
:10052200A7000C30A0000030A10020088D0003308D
:1005320060066104031D9E2A9F2AB4292608270407
:10054200031DA42AA52AB429E001E1010130E20039
:100552000030E3000930A0000030A10020088D0027
:10056200B429E001E101E201E301C72A7508003A7A
:100572000319BC2AB22A7408003A0319B329013AB2
:100582000319B829033A0319352AB22A08002000B0
:10059200D001D101A51FCE2ACF2AD32A0130D00003
:1005A2000030D10050035104031DD82AD92A872CC8
:1005B2002408FF3EA800FF30253DA9002809A40019
:1005C2002909A500872C6430F6000030F7002508C1
:1005D200F9002408F8008031652082317708200074
:1005E200B1007608B0000A30F6000030F70031089A
:1005F200F1003008F0009C30F200FF30F3008E3141
:100602003D268231200024087007F8002508713D3C
:10061200F90080316520823177082000AF0076082A
:10062200AE000A30F0000030F1002508F300240883
:10063200F20080311220823171082000AD00700872
:10064200AC003F30D6000030D700B201B30133080E
:100652003106031D2E2B32083006031D312B322B9F
:100662003B2B3235A03E86008701403F2100E60049
:10067200413FE70001302000B2070030B33D0030B7
:100682003302033003193202031C482B492B282B57
:10069200B401B50135082F06031D512B34082E066F
:1006A200031D542B552B5D2B3435A03E860087014C
:1006B200403FD400413FD5000130B4070030B53D82
:1006C200003035020A3003193402031C692B6A2BED
:1006D2004B2BB601B70137082D06031D722B3608C6
:1006E2002C06031D752B762B7E2B3635A03E8600FD
:1006F2008701403FD200413FD3000130B6070030AE
:10070200B73D003037020A3003193602031C8A2B28
:100712008B2B6C2B972C2508A9002408A8000630E7
:10072200AA00290DA90CA80CAA0B922B2808B0002C
:100732002908B1003108A9003008A8000630A83500
:10074200A90D890BA02B28082402AA002908253B01
:10075200AB002B0DAB0CAA0C2B0DAB0CAA0C2B0D6A
:10076200AB0CAA0C2A08AE002B08AF0007302405F8
:10077200A40000302505A5003F30D6000030D70088
:10078200B201B30133083106031DC92B320830060A
:10079200031DCC2BCD2BD62B3235A03E86008701F4
:1007A200403F2100E600413FE70001302000B20750
:1007B2000030B33D00303302043003193202031C0F
:1007C200E32BE42BC32BB401B50135082F06031D1F
:1007D200EC2B34082E06031DEF2BF02BF82B3435AF
:1007E200A03E86008701403FD400413FD500013042
:1007F200B4070030B53D0030350208300319340229
:10080200031C042C052CE62BB601B70137082D0674
:10081200031D0D2C36082C06031D102C112C192C2F
:100822003635A03E86008701403FD200413FD300CB
:100832000130B6070030B73D0030370208300319E7
:100842003602031C252C262C072C972C3F30D60071
:100852000030D7003F302100E6000030E7002000E2
:10086200240E0F39AE00250EF039AE04250E0F39D5
:10087200AF00F030AF1D0030AF040F302405AC00E4
:1008820000302505AD00B401B50135082F06031D62
:100892004C2C34082E06031D4F2C502C582C34356A
:1008A200A03E86008701403FD400413FD500013081
:1008B200B4070030B53D0030350210300319340260
:1008C200031C642C652C462CB601B70137082D0693
:1008D200031D6D2C36082C06031D702C712C792CEF
:1008E2003635A03E86008701403FD200413FD3000B
:1008F2000130B6070030B73D00303702103003191F
:100902003602031C852C862C672C972C2708003A6C
:1009120003198C2C972C2608083A03198C2B023ABF
:100922000319E42A1A3A0319272C972C08007A3063
:10093200210099008E312A268431803109208431A8
:100942002000BE01BF010C1CA72CA82CA42C8C1CBF
:10095200AB2CAC2CA42C0C1DAF2CB02CA42C8E14C4
:100962008E18B42CB72C20000E15B92C20000E11B5
:100972000E19BC2CBF2C20000E14C12C20000E100E
:100982000230F0000030F1008E315C26843120000C
:10099200CC01CD01CE01CF01C201C301C401C50109
:1009A200CA01CB01C801C9010C18D82CD92CEB2ED5
:1009B2008C1CDC2CDD2CEB2E4D08F1004C08F000D9
:1009C2004F08F3004E08F2000030F400F50000304A
:1009D200F600F70081315E21843120000C18F22CE0
:1009E200F32C3D2D8C1CF62CF72C3D2D4C084D0480
:1009F200031DFC2CFD2C0B2D4E084F04031D022D54
:100A0200032D0B2D4030CC000030CD004030CE0005
:100A12000030CF000230F8000030F9008F31B527E6
:100A2200843120006A086B04031D182D192D3D2DF9
:100A320066036704031D1E2D1F2D3D2D0230F0009D
:100A42000030F1008E315C268431200042084304DC
:100A5200031D2C2D2D2D312D0A30C2000030C30074
:100A6200FF30C207FF30C33D4235C03E86008701DA
:100A7200403FCC00413FCD000C1C402D412D942D18
:100A82008C1C442D452D942D40304C064D040319E9
:100A92004B2D4C2D942D4A084B04031D512D522DE4
:100AA200942D40304E064F04031D582D592D612DB3
:100AB200210041082000CF00210040082000CE0084
:100AC2000230F8000030F9008F31B5278431200060
:100AD2006A086B04031D6E2D6F2D942D6603670447
:100AE200031D742D752D942D0230F0000030F1009D
:100AF2008E315C2684310930200044064504031DF2
:100B0200832D842D882DFF30C400FF30C5000130B5
:100B1200C4070030C53D4435C03E86008701403FD2
:100B2200CE00413FCF000C1C972D982DC02D8C1864
:100B32009B2D9C2DC02D40304E064F040319A22D33
:100B4200A32DC02D40304C064D040319A92DAA2D0A
:100B5200C02D4E084F040319AF2DB02DC02D4C08E7
:100B62004D040319B52DB62DC02D4A084B04031DA3
:100B7200BB2DBC2DC02D0130CA000030CB000C1C97
:100B8200C32DC42DB42E8C1CC72DC82DB42E4030BD
:100B92004E064F040319CE2DCF2DB42E40304C06F5
:100BA2004D040319D52DD62DB42E4E084F0403192A
:100BB200DB2DDC2DB42E4C084D040319E12DE22D62
:100BC200B42E4A034B04031DE72DE82DB42E43082F
:100BD200F1004208F0004508F3004408F2008E31AB
:100BE2003D26843171082000C9007008C8004908F8
:100BF200A5004808A4000A30A6000030A7008231F0
:100C0200C82284310A30F6000030F700200049087B
:100C1200F9004808F8008031652084317708803A6D
:100C2200FC0080307C02031D182E02307602031C69
:100C32001B2E1C2E222E20005508CD005408CC005D
:100C4200252E2000CC01CD015308CF005208CE0042
:100C52000230CA000030CB00481C302E312E4C2E00
:100C62000330CA000030CB006830A8000130A90070
:100C72004D08AB004C08AA004F08AD004E08AC006E
:100C82000130AE000030AF000130B0000030B100E2
:100C92008E319C268431200048084904031D522EBF
:100CA200532E8D2E02304A064B04031D592E5A2E06
:100CB2008D2E0330CA000030CB006830A80001300E
:100CC200A9004D08AB004C08AA004F08AD004E0821
:100CD200AC000130AE000030AF000130B000003097
:100CE200B1008E319C26843168302000A80001308A
:100CF200A9004D08AB004C08AA004F08AD004E08F1
:100D0200AC000230AE000030AF000130B000003065
:100D1200B1008E319C26843120004818912E922EEB
:100D2200B42E02304A064B04031D982E992EB42E7F
:100D32000330CA000030CB00D030A8000230A90036
:100D42004D08AB004C08AA004F08AD004E08AC009D
:100D52000230AE000030AF000130B0000030B10010
:100D62008E319C2684310230F8000030F9008F3138
:100D7200B527843120000C1CBF2EC02EDD2C8C1C0C
:100D8200C32EC42EDD2C6A086B04031DC92ECA2E85
:100D9200DD2C66036704031DCF2ED02EDD2C03301D
:100DA2004A064B04031DD62ED72EDD2C0230F0004E
:100DB2000030F1008E315C2684312000CA01CB0163
:100DC200CE01CF01CC01CD01C401C501C201C301D5
:100DD200C801C9010C1CEE2EEF2ED52C8C18F22E58
:100DE200F32ED52C4D08F1004C08F0004F08F3000B
:100DF2004E08F2000030F400F5000030F600F70073
:100E020081315E21843120004C084D04031D0A2FDC
:100E12000B2F192F4E084F04031D102F112F192FBE
:100E22005430CE000030CF004F08CD004E08CC0029
:100E32000230F8000030F9008F31B52784312000EC
:100E42006A086B04031D262F272F312F66036704C0
:100E5200031D2C2F2D2F312F0130BE070030BF3D37
:100E62003F08803AFC0080307C02031D3A2F02309A
:100E72003E02031C3D2F3E2F942F20004A084B04B4
:100E8200031D442F452F942FC601C7012000470898
:100E9200A5004608A4000A30A6000030A70082314F
:100EA200C822843120005508CD005408CC005308D4
:100EB200CF005208CE004D08A9004C08A8004F08E8
:100EC200AB004E08AA00E830AC000330AD0004309D
:100ED200AE000030AF008031C520843120002908E7
:100EE200C1002808C00040034104031D792F7A2F56
:100EF200832F4708C9004608C8000B30CA000030DB
:100F0200CB00942F0130C6070030C73D4708803A16
:100F1200FC0080307C02031D902F10304602031C1F
:100F2200932F942F472F20000C18982F992FA82F1A
:100F32008C189C2F9D2FA82F0B304A064B04031DA3
:100F4200A32FA42FA82F0C30CA000030CB000C1CFA
:100F5200AB2FAC2FF32E8C18AF2FB02FF32E0C30FB
:100F62004A064B04031DB62FB72FF32E4908A500DE
:100F72004808A4001030A6000030A7008231C82221
:100F820084313F302000CC000030CD005308CF0028
:100F92005208CE00F32E803102286F3084008F3049
:100FA2008500A03086000030870046308E3124262E
:100FB2008731C03084008E308500203086000130B9
:100FC200870036308E31242687317C3084008E3083
:100FD2008500A03086000130870020308E31242623
:100FE2008731503084000030850020308E311E263B
:0E0FF20087312100E601E70120008431982CB0
:101C3C00640080010131890B1F2E0034FE0012005C
:101C4C001E00FE0B252E003423008C018D01073065
:101C5C0020008C00073021008C0020008D01210019
:101C6C008D01073020008E0021008E010800F40148
:101C7C00F501701C422E432E472E7208F407730890
:101C8C00F53D0130F235F30D890B482E0130F1365C
:101C9C00F00C890B4D2E70087104031D562E572E17
:101CAC003F2E7508F1007408F00008006B2E200020
:101CBC00E801E9017B2E2000E601E7017B2E2000E4
:101CCC00E801E901E601E7017B2E7108003A0319EE
:101CDC00702E7B2E7008003A03195D2E013A031901
:101CEC00612E033A0319652E7B2E080071340034E3
:101CFC00793400345E340034583400347C3400348D
:101D0C005F3400346F3400347F34003427340034B3
:101D1C007D3400346D340034663400344F34003478
:101D2C005B340034063400343F340034200029087E
:101D3C00F9002808F800F91FA42EA52EA62EBF2EF8
:101D4C0020002B08F1002A08F0002D08F3002C08C5
:101D5C00F2002F08F5002E08F4003108F7003008C7
:101D6C00F60081315E218E31FF30F807FF30F93DEE
:101D7C00A12E08005F3400347C3400345834003415
:101D8C005E340034793400347134003476340034E9
:101D9C003834003454340034733400347134003427
:101DAC00793400345E340034583400347C340034DC
:101DBC005F3400345F3400347C34003458340034E5
:101DCC005E34003479340034713400340634003419
:101DDC004F3400346D340034273400346F34003405
:101DEC00F501F601700871040319FD2EFE2E2D2F3E
:101DFC00F701F70A0A2F0130F035F10D890B022F8C
:101E0C000130F4007408F707F11F0D2F0E2F012F6E
:101E1C000130F535F60D890B0F2F71087302031D78
:101E2C00192F70087202031C1C2F1D2F222F7008F3
:101E3C00F2027108F33B75140130F136F00C890B8A
:101E4C00232F0130F702031D2C2F2D2F0E2F760878
:101E5C00F1007508F0000800F401F501F201F3013E
:101E6C00031020000C1903140030093DF000F1019F
:101E7C007008F6007108F70077087306031D482FE9
:101E8C0076087206031D4B2F4C2F512F0130F4078F
:101E9C000030F53D532FF401F501003075020B3085
:101EAC0003197402031C5B2F5C2F692F7708F10058
:101EBC007608F000F009F10901307005EA000030F5
:101ECC007105EB006E2F7708F3007608F200362FC1
:101EDC0008003F340034063400345B3400344F3493
:101EEC000034663400346D3400347D3400342734CF
:101EFC0000347F3400346F3400345F3400347C346D
:101F0C000034583400345E34003479340034713485
:101F1C0000343F340034063400345B3400344F3426
:101F2C000034663400346D3400347D34003427348E
:101F3C0000347F3400346F3400343F3400345B346D
:101F4C000034663400347D3400347F34003454342F
:101F5C000034733400347634003438340034EF2FCA
:101F6C008F3132278F3120006A086B04031DBF2F7D
:101F7C00C02FFF2F0130E8000030E900FF2F8F3118
:101F8C0032278F3120006A036B04031DCE2FCF2F15
:101F9C00FF2F0130E6000030E700FF2F8F31322792
:101FAC008F3120006A086B04031DDD2FDE2FE22F1A
:101FBC000130E8000030E9006A036B04031DE72FD1
:101FCC00E82FFF2F68036904031DED2FEE2FFF2F61
:101FDC00CF2F7908003A0319F42FFF2F7808003A15
:101FEC000319B62F013A0319C52F033A0319D42F3D
:041FFC00FF2F0800AB
:020000040001F9
:04000E00E409FF1EE4
:00000001FF
