:020000040000FA
:08000000803102288731D12F65
:10066E00640080010131890B382B0034FE0012002A
:10067E001E00FE0B3E2B0034543400347334003411
:10068E00763400343834003420000E148E140E15D7
:10069E008D018E138E178E13080020000C19582B07
:1006AE00592B5E2B0130AA070030AB3D602BAA01FF
:1006BE00AB01080023008C018D01073020008C0057
:1006CE00073021008C0020008D0121008D010730A4
:1006DE0020008E0021008E010800F401F501701C2F
:1006EE00792B7A2B7E2B7208F4077308F53D0130B7
:1006FE00F235F30D890B7F2B0130F136F00C890B9F
:10070E00842B70087104031D8D2B8E2B762B750890
:10071E00F1007408F0000800A22B2000BA01BB0102
:10072E00B22B2000B801B901B22B2000BA01BB01D7
:10073E00B801B901B22B7108003A0319A72BB22BDD
:10074E007008003A0319942B013A0319982B033AB7
:10075E0003199C2BB22B080020004B08F9004A0805
:10076E00F800F91FBB2BBC2BBD2BD62B20004D0840
:10077E00F1004C08F0004F08F3004E08F20051084B
:10078E00F5005008F4005308F7005208F6008631C1
:10079E0067268331FF30F807FF30F93DB82B08008C
:1007AE007708F1007608F0000A30F2000030F3000E
:1007BE008331742383317108F9007008F8007808CA
:1007CE007904031DEB2BEC2BED2B002C0A30FA00D9
:1007DE000030FB000130FA020030FB3B7A087B044C
:1007EE00031DFA2BFB2BF12B0130F8020030F93BE5
:1007FE00E62B08000A30F0000030F10020004F0810
:10080E00F3004E08F2008431352484317108200043
:10081E00CF007008CE004F08F9004E08F800780897
:10082E007904031D1B2C1C2C1D2C342C20004B0872
:10083E00F1004A08F0004D08F3004C08F2000030B9
:10084E00F400F5000030F600F7008631672684319B
:10085E000130F8020030F93B162C0800F501F601C4
:10086E007008710403193C2C3D2C6C2CF701F70A0F
:10087E00492C0130F035F10D890B412C0130F4007B
:10088E007408F707F11F4C2C4D2C402C0130F53518
:10089E00F60D890B4E2C71087302031D582C70082F
:1008AE007202031C5B2C5C2C612C7008F202710826
:1008BE00F33B75140130F136F00C890B622C0130CC
:1008CE00F702031D6B2C6C2C4D2C7608F10075086D
:1008DE00F00008003F340034063400345B3400343A
:1008EE004F340034663400346D3400347D340034BB
:1008FE00273400347F3400346F3400345F340034D6
:10090E007C340034583400345E340034793400348E
:10091E00713400343F340034063400345B34003418
:10092E004F340034663400346D3400347D3400347A
:10093E00273400347F3400346F34003406340034EE
:10094E004F3400346D340034273400346F340034A7
:10095E003F3400345B340034663400347D3400346C
:10096E007F34003471340034793400345E34003412
:10097E00583400347C3400345F3400346F34003427
:10098E007F340034273400347D3400346D34003429
:10099E00663400344F3400345B3400340634003493
:1009AE003F3400345F3400347C3400345834003427
:1009BE005E340034793400347134003476340034CB
:1009CE003834003454340034733400347134003409
:1009DE00793400345E340034583400347C340034BE
:1009EE005F3400345F3400347C34003458340034C7
:1009FE005E34003479340034713400347A3021009E
:100A0E00990083316123853183314B238531200059
:100A1E000C1C122D132D0E2D8C1C162D172D0E2D7C
:100A2E000C1D1A2D1B2D0E2D8E148E181F2D222DE2
:100A3E0020000E15242D20000E110E19272D2A2D03
:100A4E0020000E142C2D20000E100230F00000306D
:100A5E00F10083319323853120000C18372D382D6A
:100A6E00332DDA01DB010C183D2D3E2D3A2D0930C8
:100A7E00DE000030DF005E35C03E86008701403F5D
:100A8E00CA00413FCB000030CC00CD00F430CE0088
:100A9E000130CF00843101248531572E5E35C03EA2
:100AAE0086008701403FF000413FF1003F30F200E9
:100ABE000030F3000030F400F5000030F600F700CF
:100ACE0086316726853183315423853120005A08BB
:100ADE005B040319732D742DE72D5B08803AFC001F
:100AEE0080307C02031D7D2D64305A020318802D48
:100AFE00812DE72D20002A082B04031D872D882D1C
:100B0E00E72DDC01DD01B02D68302000CA00013078
:100B1E00CB005E35C03E86008701403FCC00413F92
:100B2E00CD005C35C03E86008701403FCE00413F80
:100B3E00CF000130D0000030D1000130D2000030A3
:100B4E00D3008331B323853101302000DC07003020
:100B5E00DD3D5D08803AFC005F08803A7C02031D93
:100B6E00BA2D5E085C02031CBD2DBE2D8B2D200000
:100B7E005E35C03E86008701403FCA00413FCB0034
:100B8E005C35C03E86008701403FCC00413FCD0022
:100B9E00F430CE000130CF00843101248531F430A1
:100BAE00F6000130F7008331D723853120000C1C6D
:100BBE00E12DE22DBE2D8C1CE52DE62DBE2D382D02
:100BCE0020005A085B040319ED2DEE2D532E2A0832
:100BDE002B04031DF32DF42D532EDC01DD011C2EF1
:100BEE0068302000CA000130CB005E35C03E860062
:100BFE008701403FCC00413FCD005C35C03E8600B2
:100C0E008701403FCE00413FCF000230D000003080
:100C1E00D1000530D2000030D3008331B3238531AB
:100C2E0001302000DC070030DD3D5D08803AFC001D
:100C3E005F08803A7C02031D262E5E085C02031CB0
:100C4E00292E2A2EF72D20005E35C03E8600870104
:100C5E00403FCA00413FCB005C35C03E8600870155
:100C6E00403FCC00413FCD00E830CE000330CF00F6
:100C7E00843101248531E830F6000330F7008331EA
:100C8E00D723853120000C1C4D2E4E2E2A2E8C1C67
:100C9E00512E522E2A2E382D2B08DB002A08DA0070
:100CAE0020008C1C5B2E5C2E552DFF30DE07FF3096
:100CBE00DF3DDF1F632E642E422D3A2D8031022838
:100CCE002000C401C501C801C901C201C3018E13B0
:100CDE0070088D008E120E17053076067704031DF0
:100CEE00792E7A2E7F2EA030C4000F30C500832EB1
:100CFE00D030C4000730C5004508C7004408C60000
:100D0E0046084704031D8C2E8D2E8E2E932E0130F9
:100D1E00C6020030C73B872E8E120E1372088D004E
:100D2E000E138E16053076067704031D9F2EA02E09
:100D3E00A52EA030C4000F30C500A92ED030C4009F
:100D4E000730C5004508C7004408C60046084704DA
:100D5E00031DB22EB32EB42EB92E0130C6020030B2
:100D6E00C73BAD2E8E120E13C02F8D018E138E1714
:100D7E008E13D02F36033704031DC62EC72EC92E51
:100D8E00B401B501B601B70134083504031DD02EE8
:100D9E00D12EE72E48084904031DD62ED72EE72E56
:100DAE000130B4000030B500B201B3010130C8000B
:100DBE000030C9000930C2000030C30042088D0067
:100DCE0034033504031DEC2EED2E052F480849047F
:100DDE00031DF22EF32E052F0230B4000030B500A5
:100DEE000330B2000030B3000130C8000030C9003B
:100DFE000C30C2000030C30042088D0002303406B1
:100E0E003504031D0B2F0C2F242F48084904031DF6
:100E1E00112F122F242F0330B4000030B5000230F2
:100E2E00B2000030B3000130C8000030C9000630F7
:100E3E00C2000030C30042088D0003303406350472
:100E4E00031D2A2F2B2FBD2E48084904031D302FBA
:100E5E00312FBD2EB401B5010130B2000030B30008
:100E6E000330C2000030C30042088D00BD2E360391
:100E7E003704031D432F442F462FB201B301B60191
:100E8E00B70132083304031D4D2F4E2F642F48082F
:100E9E004904031D532F542F642F0130B20000302C
:100EAE00B300B401B5010130C8000030C9000330F1
:100EBE00C2000030C30042088D0032033304031D0C
:100ECE00692F6A2F822F48084904031D6F2F702F38
:100EDE00822F0230B2000030B3000330B400003075
:100EEE00B5000130C8000030C9000630C200003025
:100EFE00C30042088D00023032063304031D882FD2
:100F0E00892FA12F48084904031D8E2F8F2FA12F43
:100F1E000330B2000030B3000230B4000030B50030
:100F2E000130C8000030C9000C30C2000030C300D0
:100F3E0042088D00033032063304031DA72FA82F5D
:100F4E00BD2E48084904031DAD2FAE2FBD2EB20194
:100F5E00B3010130B4000030B5000930C2000030DA
:100F6E00C30042088D00BD2EB201B301B401B5011C
:100F7E00D02F7508003A0319C52FBB2F7408003AFD
:100F8E000319BC2E013A0319C12E033A03193E2F41
:100F9E00BB2F08004330840083308500603086000C
:100FAE0000308700083083313D2387317130840053
:100FBE0084308500A03086000030870048308331B1
:100FCE003D238731B930840084308500203086007F
:100FDE00013087004C3083313D238731203084002F
:100FEE000030850022308331372387312000853150
:020FFE00052DBF
:020000040001F9
:04000E00E409FF1EE4
:00000001FF
