:020000040000FA
:08000000803102288731CE2F68
:10000C00FE0012001E00FE0B07280034F601F31F41
:10001C00102811281828F209F309F20A0319F30A17
:10002C00F601F60AF11F1B281C282128F009F109FA
:10003C00F00A0319F10A70087104031926282728FD
:10004C005028F501F50A33280130F035F10D890BF4
:10005C002B280130F4007408F507F11F36283728D7
:10006C002A2871087302031D3D2870087202031CB4
:10007C004028412845287008F2027108F33B0130F2
:10008C00F136F00C890B46280130F502031D4F2880
:10009C005028372876080319542855285A28F2096D
:1000AC00F309F20A0319F30A7308F1007208F0005D
:1000BC0008002000A201A301A601A701A001A10133
:1000CC008E1370088D008E120E170530760677048D
:1000DC00031D712872287728A030A2000F30A300CE
:1000EC007B28D030A2000730A3002308A5002208EB
:1000FC00A40024082504031D8428852886288B2821
:10010C000130A4020030A53B7F288E120E1372081A
:10011C008D000E138E16053076067704031D972876
:10012C0098289D28A030A2000F30A300A128D03021
:10013C00A2000730A3002308A5002208A40024086D
:10014C002504031DAA28AB28AC28B1280130A40231
:10015C000030A53BA5288E120E13B8298D018E13E5
:10016C008E178E13C82964036504031DBE28BF288F
:10017C00C128E201E301E401E50162086304031D07
:10018C00C828C928DF2826082704031DCE28CF2815
:10019C00DF280130E2000030E300E001E101013032
:1001AC00A6000030A7000930A0000030A1002008F4
:1001BC008D0062036304031DE428E528FD2826084E
:1001CC002704031DEA28EB28FD280230E20000304A
:1001DC00E3000330E0000030E1000130A600003005
:1001EC00A7000C30A0000030A10020088D000230C8
:1001FC0062066304031D032904291C29260827040D
:10020C00031D09290A291C290330E2000030E300F0
:10021C000230E0000030E1000130A6000030A70001
:10022C000630A0000030A10020088D0003306206CB
:10023C006304031D22292329B52826082704031D3E
:10024C0028292929B528E201E3010130E00000301A
:10025C00E1000330A0000030A10020088D00B5287B
:10026C0064036504031D3B293C293E29E001E1019F
:10027C00E401E50160086104031D452946295C2958
:10028C0026082704031D4B294C295C290130E0006A
:10029C000030E100E201E3010130A6000030A700CC
:1002AC000330A0000030A10020088D006003610421
:1002BC00031D612962297A2926082704031D672951
:1002CC0068297A290230E0000030E1000330E200B6
:1002DC000030E3000130A6000030A7000630A0007B
:1002EC000030A10020088D00023060066104031D5F
:1002FC0080298129992926082704031D8629872905
:10030C0099290330E0000030E1000230E2000030B7
:10031C00E3000130A6000030A7000C30A000003034
:10032C00A10020088D00033060066104031D9F2985
:10033C00A029B52826082704031DA529A629B52818
:10034C00E001E1010130E2000030E3000930A000DF
:10035C000030A10020088D00B528E001E101E20188
:10036C00E301C8297508003A0319BD29B32974089B
:10037C00003A0319B428013A0319B928033A0319AE
:10038C003629B32908002000D001D101A51FCF299F
:10039C00D029D4290130D0000030D10050035104B1
:1003AC00031DD929DA29882B2408FF3EA800FF3029
:1003BC00253DA9002809A4002909A500882B643033
:1003CC00F6000030F7002508F9002408F8008F31FA
:1003DC000727813177082000B1007608B0000A3079
:1003EC00F6000030F7003108F1003008F0009C30C6
:1003FC00F200FF30F3008D314425813120002408B8
:10040C007007F8002508713DF9008F3107278131FD
:10041C0077082000AF007608AE000A30F0000030FC
:10042C00F1002508F3002408F20080310C20813102
:10043C0071082000AD007008AC003F30D6000030D1
:10044C00D700B201B30133083106031D2F2A32083D
:10045C003006031D322A332A3C2A3235A03E860050
:10046C008701403F2100E600413FE70001302000BA
:10047C00B2070030B33D00303302033003193202AF
:10048C00031C492A4A2A292AB401B50135082F062A
:10049C00031D522A34082E06031D552A562A5E2A9D
:1004AC003435A03E86008701403FD400413FD50043
:1004BC000130B4070030B53D003035020A30031965
:1004CC003402031C6A2A6B2A4C2AB601B70137087E
:1004DC002D06031D732A36082C06031D762A772A4F
:1004EC007F2A3635A03E86008701403FD200413F2F
:1004FC00D3000130B6070030B73D003037020A3068
:10050C0003193602031C8B2A8C2A6D2A982B25087A
:10051C00A9002408A8000630AA00290DA90CA80CD3
:10052C00AA0B932A2808B0002908B1003108A900A9
:10053C003008A8000630A835A90D890BA12A280877
:10054C002402AA002908253BAB002B0DAB0CAA0CEE
:10055C002B0DAB0CAA0C2B0DAB0CAA0C2A08AE0065
:10056C002B08AF0007302405A40000302505A5009A
:10057C003F30D6000030D700B201B301330831064A
:10058C00031DCA2A32083006031DCD2ACE2AD72ACB
:10059C003235A03E86008701403F2100E600413FF6
:1005AC00E70001302000B2070030B33D00303302C9
:1005BC00043003193202031CE42AE52AC42AB401CC
:1005CC00B50135082F06031DED2A34082E06031D30
:1005DC00F02AF12AF92A3435A03E86008701403FE3
:1005EC00D400413FD5000130B4070030B53D003098
:1005FC003502083003193402031C052B062BE72A9D
:10060C00B601B70137082D06031D0E2B36082C0634
:10061C00031D112B122B1A2B3635A03E8600870199
:10062C00403FD200413FD3000130B6070030B73D08
:10063C0000303702083003193602031C262B272BF7
:10064C00082B982B3F30D6000030D7003F302100CC
:10065C00E6000030E7002000240E0F39AE00250E16
:10066C00F039AE04250E0F39AF00F030AF1D00305D
:10067C00AF040F302405AC0000302505AD00B401EB
:10068C00B50135082F06031D4D2B34082E06031D0E
:10069C00502B512B592B3435A03E86008701403FFF
:1006AC00D400413FD5000130B4070030B53D0030D7
:1006BC003502103003193402031C652B662B472BB3
:1006CC00B601B70137082D06031D6E2B36082C0614
:1006DC00031D712B722B7A2B3635A03E86008701B9
:1006EC00403FD200413FD3000130B6070030B73D48
:1006FC0000303702103003193602031C862B872B6F
:10070C00682B982B2708003A03198D2B982B260859
:10071C00083A03198D2A023A0319E5291A3A0319E2
:10072C00282B982B08007A30210099008D31312527
:10073C0083318D31282583312000C001C1010C1C6F
:10074C00A82BA92BA52B8C1CAC2BAD2BA52B0C1DD6
:10075C00B02BB12BA52B8E148E18B52BB82B2000DB
:10076C000E15BA2B20000E110E19BD2BC02B20001C
:10077C000E14C22B20000E100230F0000030F100DD
:10078C008D31632583312000CA01CB01CC01CD0111
:10079C00C201C301C401C501CE01CF01C601C7010D
:1007AC000C18D92BDA2BFB2D8C1CDD2BDE2BFB2D07
:1007BC004B08F1004A08F0004D08F3004C08F20019
:1007CC000030F400F5000030F600F70080315F20B7
:1007DC00833120000C18F32BF42B3E2C8C1CF72BA4
:1007EC00F82B3E2C4A084B04031DFD2BFE2B0C2C26
:1007FC004C084D04031D032C042C0C2C4030CA0057
:10080C000030CB004030CC000030CD000230F8007E
:10081C000030F9008E31BC26833120006A086B044D
:10082C00031D192C1A2C3E2C66036704031D1F2C68
:10083C00202C3E2C0230F0000030F1008D3163256D
:10084C008331200042084304031D2D2C2E2C322C06
:10085C000A30C2000030C300FF30C207FF30C33D76
:10086C004235C03E86008701403FCA00413FCB0065
:10087C000C1C412C422C952C8C1C452C462C952C5C
:10088C0040304A064B0403194C2C4D2C952C4E0829
:10089C004F04031D522C532C952C40304C064D0408
:1008AC00031D592C5A2C622C210041082000CD002C
:1008BC00210040082000CC000230F8000030F90084
:1008CC008E31BC26833120006A086B04031D6F2C0B
:1008DC00702C952C66036704031D752C762C952CB7
:1008EC000230F0000030F1008D3163258331093086
:1008FC00200044064504031D842C852C892CFF30D4
:10090C00C400FF30C5000130C4070030C53D44357C
:10091C00C03E86008701403FCC00413FCD000C1CFF
:10092C00982C992CC12C8C189C2C9D2CC12C4030B3
:10093C004C064D040319A32CA42CC12C40304A06A0
:10094C004B040319AA2CAB2CC12C4C084D040319D5
:10095C00B02CB12CC12C4A084B040319B62CB72C63
:10096C00C12C4E084F04031DBC2CBD2CC12C0130D6
:10097C00CE000030CF000C1CC42CC52CC42D8C1CFC
:10098C00C82CC92CC42D40304C064D040319CF2C57
:10099C00D02CC42D40304A064B040319D62CD72C2E
:1009AC00C42D4C084D040319DC2CDD2CC42D4A0835
:1009BC004B040319E22CE32CC42D4E034F04031DEE
:1009CC00E82CE92CC42DCE01CF014308F1004208DC
:1009DC00F0004508F3004408F2008D3144258331C2
:1009EC0071082000C7007008C6004708A50046081B
:1009FC00A4000A30A6000030A7008131C921833140
:100A0C000A30F6000030F70020004708F9004608CD
:100A1C00F8008F31072783317708803AFC0080304B
:100A2C007C02031D1B2D02307602031C1E2D1F2D74
:100A3C00252D20005508CB005408CA00282D200075
:100A4C00CA01CB015308CD005208CC004E084F040C
:100A5C00031D312D322D362D0230CE000030CF004B
:100A6C00461C392D3A2D5C2D02304E064F04031DC9
:100A7C00402D412D5C2D0330CE000030CF0068306E
:100A8C00A8000130A9004B08AB004A08AA004D0889
:100A9C00AD004C08AC000130AE000030AF000130AE
:100AAC00B0000030B1008D31A32583312000460801
:100ABC004704031D622D632D9D2D02304E064F04FD
:100ACC00031D692D6A2D9D2D0330CE000030CF0003
:100ADC006830A8000130A9004B08AB004A08AA00F6
:100AEC004D08AD004C08AC000130AE000030AF003A
:100AFC000130B0000030B1008D31A3258331683056
:100B0C002000A8000130A9004B08AB004A08AA003D
:100B1C004D08AD004C08AC000230AE000030AF0008
:100B2C000130B0000030B1008D31A325833120009D
:100B3C004618A12DA22DC42D02304E064F04031DC4
:100B4C00A82DA92DC42D0330CE000030CF00D030FD
:100B5C00A8000230A9004B08AB004A08AA004D08B7
:100B6C00AD004C08AC000230AE000030AF000130DC
:100B7C00B0000030B1008D31A32583310230F80074
:100B8C000030F9008E31BC26833120000C1CCF2D97
:100B9C00D02DDE2B8C1CD32DD42DDE2B6A086B04B0
:100BAC00031DD92DDA2DDE2B66036704031DDF2D03
:100BBC00E02DDE2B03304E064F04031DE62DE72DF2
:100BCC00DE2B0230F0000030F1008D3163258331D3
:100BDC002000CE01CF01CC01CD01CA01CB01C40153
:100BEC00C501C201C301C601C7010C1CFE2DFF2D9E
:100BFC00D62B8C18022E032ED62B4B08F1004A084C
:100C0C00F0004D08F3004C08F2000030F400F50041
:100C1C000030F600F70080315F20833120004A0855
:100C2C004B04031D1A2E1B2E292E4C084D04031D9C
:100C3C00202E212E292E5430CC000030CD004D0812
:100C4C00CB004C08CA000230F8000030F9008E319D
:100C5C00BC26833120006A086B04031D362E372E08
:100C6C00492E66036704031D3C2E3D2E492E02308F
:100C7C00F0000030F1008D3163258331013020000C
:100C8C00C0070030C13D4108803AFC0080307C0236
:100C9C00031D522E02304002031C552E562EAE2E32
:100CAC0020004E084F04031D5C2E5D2EAE2EC0019D
:100CBC00C101C801C90120004908A5004808A400C9
:100CCC000A30A6000030A7008131C92183312000F1
:100CDC005508CB005408CA005308CD005208CC006C
:100CEC004B08A9004A08A8004D08AB004C08AA0004
:100CFC00E830AC000330AD000430AE000030AF0083
:100D0C008F316727833120002908BF002808BE00D7
:100D1C003E033F04031D932E942E9D2E4908C700BD
:100D2C004808C6000B30CE000030CF00AE2E01308C
:100D3C00C8070030C93D4908803AFC0080307C026D
:100D4C00031DAA2E10304802031CAD2EAE2E612EB0
:100D5C0020000C18B22EB32EC22E8C18B62EB72E25
:100D6C00C22E0B304E064F04031DBD2EBE2EC22EBE
:100D7C000C30CE000030CF000C1CC52EC62EE92E38
:100D8C008C18C92ECA2EE92E0C304E064F04031DAA
:100D9C00D02ED12EE92E4708A5004608A40010300D
:100DAC00A6000030A7008131C92183313F302000DB
:100DBC00CA000030CB005308CD005208CC000D30D7
:100DCC00CE000030CF000C1CEC2EED2E4A2F8C1CCC
:100DDC00F02EF12E4A2F4708803AFC0080307C021E
:100DEC00031DFA2E0A304602031CFD2EFE2E4A2F3E
:100DFC000D3020004E064F04031D052F062F4A2FE1
:100E0C000E10C801C9013C302000A8000030A90018
:100E1C003F30AA000030AB004835203E8600013040
:100E2C008700403FAC00413FAD000230AE000030C7
:100E3C00AF000530B0000030B1008D31A3258331F7
:100E4C0001302000C8070030C93D4908803AFC0039
:100E5C0080307C02031D342F06304802031C372FD0
:100E6C00382F092F0E302000CE000030CF003F303D
:100E7C00CA000030CB004835203E86000130870088
:100E8C00403FCC00413FCD0020000C1C4E2F4F2F7B
:100E9C00A92F8C1C522F532FA92F4708803AFC00E6
:100EAC0080307C02031D5C2F0A30460203185F2F32
:100EBC00602FA92F0D3020004E064F04031D672F05
:100ECC00682FA92FC801C90124302000A8000030C8
:100EDC00A9003F30AA000030AB004835C03E860068
:100EEC008701403FAC00413FAD000230AE00003006
:100EFC00AF000530B0000030B1008D31A325833137
:100F0C0001302000C8070030C93D4908803AFC0078
:100F1C0080307C02031D942F0A304802031C972F4B
:100F2C00982F6A2F0E302000CE000030CF003F30BB
:100F3C00CA000030CB004835C03E86008701403FD8
:100F4C00CC00413FCD0020000C1CAD2FAE2F032E4A
:100F5C008C1CB12FB22F032E0E304E064F04031DE6
:100F6C00B82FB92F032E0230F0000030F1008D3174
:100F7C00632583312000CE01CF01CC01CD01CA0104
:100F8C00CB01C401C501C201C301D42B803102289D
:100F9C00763084008E308500A030860000308700CB
:100FAC004630803106208731C73084008D30850073
:100FBC0020308600013087003630803106208731A2
:100FCC00833084008D308500A0308600013087008E
:100FDC00203080310620873150308400003085006D
:100FEC0020308D31222587312100E601E7012000D8
:040FFC008331992B79
:101A4400640080010131890B232D003420000E1421
:101A54008E140E158D018E138E178E13080023001D
:101A64008C018D01073020008C00073021008C0090
:101A740020008D0121008D01073020008E002100FF
:101A84008E010800F401F501701C492D4A2D4E2DDC
:101A94007208F4077308F53D0130F235F30D890B34
:101AA4004F2D0130F136F00C890B542D7008710460
:101AB400031D5D2D5E2D462D7508F1007408F000A0
:101AC4000800722D2000E801E901822D2000E601C2
:101AD400E701822D2000E801E901E601E701822DFA
:101AE4007108003A0319772D822D7008003A031902
:101AF400642D013A0319682D033A03196C2D822DC4
:101B0400080071340034793400345E3400345834BD
:101B140000347C3400345F3400346F3400347F3458
:101B24000034273400347D3400346D34003466349A
:101B340000344F3400345B340034063400343F3412
:101B4400003420002908F9002808F800F91FAB2DFB
:101B5400AC2DAD2DC62D20002B08F1002A08F00075
:101B64002D08F3002C08F2002F08F5002E08F400CD
:101B74003108F7003008F60080315F208D31FF30E6
:101B8400F807FF30F93DA82D08005F3400347C3499
:101B94000034583400345E34003479340034713401
:101BA400003476340034383400345434003473341C
:101BB400003471340034793400345E3400345834E1
:101BC40000347C3400345F3400345F3400347C34BB
:101BD4000034583400345E340034793400347134C1
:101BE4000034063400344F3400346D340034273468
:101BF40000346F340034F501F601700871040319E0
:101C0400042E052E342EF701F70A112E0130F0357B
:101C1400F10D890B092E0130F4007408F707F11F48
:101C2400142E152E082E0130F535F60D890B162EBF
:101C340071087302031D202E70087202031C232EE8
:101C4400242E292E7008F2027108F33B751401301A
:101C5400F136F00C890B2A2E0130F702031D332EC6
:101C6400342E152E7608F1007508F0000800F401F2
:101C7400F501F201F301031020000C1903140030E4
:101C8400093DF000F1017008F6007108F7007708CB
:101C94007306031D4F2E76087206031D522E532E13
:101CA400582E0130F4070030F53D5A2EF401F501A9
:101CB400003075020B3003197402031C622E632E6C
:101CC400702E7708F1007608F000F009F109013070
:101CD4007005EA0000307105EB00752E7708F300FB
:101CE4007608F2003D2E08003F34003406340034F8
:101CF4005B3400344F340034663400346D340034C3
:101D04007D340034273400347F3400346F3400349D
:101D14005F3400347C340034583400345E3400348E
:101D240079340034713400343F34003406340034E0
:101D34005B3400344F340034663400346D34003482
:101D44007D340034273400347F3400346F3400345D
:101D54003F3400345B340034663400347D34003462
:101D64007F34003454340034733400347634003413
:101D740038340034F62E8E3139268E3120006A082C
:101D84006B04031DC62EC72E062F0130E800003059
:101D9400E900062F8E3139268E3120006A036B0448
:101DA400031DD52ED62E062F0130E6000030E700A5
:101DB400062F8E3139268E3120006A086B04031DEC
:101DC400E42EE52EE92E0130E8000030E9006A0334
:101DD4006B04031DEE2EEF2E062F68036904031D0A
:101DE400F42EF52E062FD62E7908003A0319FB2E71
:101DF400062F7808003A0319BD2E013A0319CC2E98
:101E0400033A0319DB2E062F08002000A101F71F57
:101E14000C2F0D2F142FF609F709F60A0319F70AE8
:101E2400A101A10AF91F172F182F212FF809F90969
:101E3400F80A0319F90A0130FA007A08A106A20186
:101E4400A301760877040319282F292F582FA001FE
:101E5400A00A352F0130F635F70D890B2D2F0130EF
:101E6400FA007A08A007F71F382F392F2C2F0130DA
:101E7400A235A30D890B3A2F77087902031D442F4D
:101E840076087802031C472F482F4D2F7608F80256
:101E94007708F93B22140130F736F60C890B4E2FE4
:101EA4000130A002031D572F582F392F2108031981
:101EB4005C2F5D2F622FA209A309A20A0319A30AAA
:101EC4002308F7002208F6000800031020000C186D
:101ED40003140030093DFA00FB017A08B0007B08C6
:101EE400B10003108C1803140030093DFA00FB0103
:101EF4007A08B2007B08B3000A30F0000030F10029
:101F04002D08F3002C08F2008D31FD258F31710866
:101F14002000AD007008AC002D08B5002C08B400FA
:101F240034083504031D972F982F992FFF2F290864
:101F3400F1002808F0002B08F3002A08F200003012
:101F4400F400F5000030F600F70080315F208F3197
:101F54000030F800F9008E31BC268F3103102000C8
:101F64000C1803140030093DFA00FB0131087B060C
:101F7400031DBE2F30087A060319C12FC22FD32F99
:101F84002E1DC52FC62FD32F0230F0000030F100D4
:101F94008D3163258F3101302000A8000030A90065
:101FA400FF2F03108C1803140030093DFA00FB01C5
:101FB40033087B06031DE02F32087A060319E32F4A
:101FC400E42FE92FAE1CE72FE82FE92FC62F6A0371
:101FD4006B04031DEE2FEF2FFA2F68036904031D12
:101FE400F42FF52FFA2F2E1CF82FF92FFA2FC62FC6
:0C1FF4000130B4020030B53B922F080011
:020000040001F9
:04000E00E409FF1EE4
:00000001FF
