:020000040000FA
:08000000803102288731CD2F69
:10083800640080010131890B1D2C0034FE00120078
:100848001E00FE0B232C003420000E148E140E15EF
:100858008D018E138E178E1308003F3400345B34DD
:100868000034663400347D3400347F34003454342A
:1008780000347334003476340034383400342300C0
:100888008C018D01073020008C00073021008C007E
:1008980020008D0121008D01073020008E002100ED
:1008A8008E010800642CFA01FB01742C2000B801A9
:1008B800B901742CFA01FB012000B801B901742CAC
:1008C8007108003A0319692C742C7008003A03194E
:1008D800572C013A03195A2C033A03195E2C742C2D
:1008E8000800F401F501F201F301031020000C19CE
:1008F80003140030093DF000F1017008F60071089A
:10090800F70077087306031D8B2C76087206031D03
:100918008E2C8F2C942C0130F4070030F53D962C4A
:10092800F401F501003075020B3003197402031C41
:100938009E2C9F2CAC2C7708F1007608F000F0096B
:10094800F10901307005FC0000307105FD00B12C83
:100958007708F3007608F200792C08007134003427
:10096800793400345E340034583400347C34003434
:100978005F3400346F3400347F340034273400345B
:100988007D3400346D340034663400344F34003420
:100998005B340034063400343F3400345F340034B0
:1009A8007C340034583400345E34003479340034F4
:1009B800713400347634003438340034543400341C
:1009C8007334003471340034793400345E340034C4
:1009D800583400347C3400345F3400342A2D843198
:1009E800752484317C087D04031DFB2CFC2C3A2DD6
:1009F8000130FA000030FB003A2D8431752484312F
:100A08007C037D04031D092D0A2D3A2D0130200099
:100A1800B8000030B9003A2D8431752484317C083F
:100A28007D04031D182D192D1D2D0130FA000030ED
:100A3800FB007C037D04031D222D232D3A2D7A0310
:100A48007B04031D282D292D3A2D0A2D7908003AFB
:100A580003192F2D3A2D7808003A0319F32C013A7F
:100A68000319012D033A0319102D3A2D08003F34BC
:100A78000034063400345B3400344F3400346634B8
:100A880000346D3400347D340034273400347F342E
:100A980000346F3400345F3400347C34003458340C
:100AA80000345E34003479340034713400343F3417
:100AB8000034063400345B3400344F340034663478
:100AC80000346D3400347D340034273400347F34EE
:100AD80000346F3400345F3400347C3400345834CC
:100AE80000345E3400347934003471340034063410
:100AF80000344F3400346D340034273400346F34FC
:100B080000347A30210099008431432485318431BE
:100B1800282485312000D201D301D401D5010C1C31
:100B2800962D972D932D8C1C9A2D9B2D932D0C1D56
:100B38009E2D9F2D932D8E148E18A32DA62D20004B
:100B48000E15A82D20000E110E19AB2DAE2D20006C
:100B58000E14B02D20000E100230F0000030F1000D
:100B680084315624853140302000D6000030D7002B
:100B78004030D0000030D10020000C18C42DC52D05
:100B88000C2E8C1CC82DC92D0C2E5708F1005608A8
:100B9800F0005108F3005008F2000030F400F500AE
:100BA8000030F600F7008631632685310230F80000
:100BB8000030F9008431F22485317C087D04031D5E
:100BC800E62DE72D0C2E200038033904031DED2DEA
:100BD800EE2D0C2E52085304031DF32DF42DF82D81
:100BE8000A30D2000030D300FF30D207FF30D33DA7
:100BF8000230F0000030F1008431562485312000A5
:100C08005235C03E86008701403FD600413FD7009D
:100C180020000C1C102E112EC02D8C1C142E152EED
:100C2800C02D40305606570403191B2E1C2EC02D0C
:100C38005708F1005608F0005108F3005008F20078
:100C48000030F400F5000030F600F7008631632626
:100C580085310230F8000030F9008431F224853102
:100C68007C087D04031D392E3A2EC02D2000380340
:100C78003904031D402E412EC02D09305406550459
:100C8800031D472E482E4C2EFF30D400FF30D500D0
:100C98000130D4070030D53D0230F0000030F100BB
:100CA80084315624853120005435C03E86008701A2
:100CB800403FD000413FD100C02D803102282000A4
:100CC800C001C101C401C501BE01BF018E13700876
:100CD8008D008E120E17053076067704031D752ECB
:100CE800762E7B2EA030C0000F30C1007F2ED03072
:100CF800C0000730C1004108C3004008C2004208D4
:100D08004304031D882E892E8A2E8F2E0130C2029D
:100D18000030C33B832E8E120E1372088D000E1303
:100D28008E16053076067704031D9B2E9C2EA12E69
:100D3800A030C0000F30C100A52ED030C000073051
:100D4800C1004108C3004008C20042084304031D13
:100D5800AE2EAF2EB02EB52E0130C2020030C33BEE
:100D6800A92E8E120E13BC2F8D018E138E178E1383
:100D7800CC2F36033704031DC22EC32EC52EB40153
:100D8800B501B601B70134083504031DCC2ECD2EAC
:100D9800E32E44084504031DD22ED32EE32E013042
:100DA800B4000030B500B201B3010130C400003016
:100DB800C5000930BE000030BF003E088D00340376
:100DC8003504031DE82EE92E012F44084504031DB0
:100DD800EE2EEF2E012F0230B4000030B5000330A4
:100DE800B2000030B3000130C4000030C5000C3040
:100DF800BE000030BF003E088D00023034063504C6
:100E0800031D072F082F202F44084504031D0D2F0D
:100E18000E2F202F0330B4000030B5000230B2008E
:100E28000030B3000130C4000030C5000630BE00F9
:100E38000030BF003E088D00033034063504031D22
:100E4800262F272FB92E44084504031D2C2F2D2F9C
:100E5800B92EB401B5010130B2000030B30003303F
:100E6800BE000030BF003E088D00B92E360337049F
:100E7800031D3F2F402F422FB201B301B601B70126
:100E880032083304031D492F4A2F602F44084504B4
:100E9800031D4F2F502F602F0130B2000030B300D8
:100EA800B401B5010130C4000030C5000330BE00F4
:100EB8000030BF003E088D0032033304031D652F48
:100EC800662F7E2F44084504031D6B2F6C2F7E2F41
:100ED8000230B2000030B3000330B4000030B50077
:100EE8000130C4000030C5000630BE000030BF002D
:100EF8003E088D00023032063304031D842F852FEF
:100F08009D2F44084504031D8A2F8B2F9D2F0330E6
:100F1800B2000030B3000230B4000030B500013038
:100F2800C4000030C5000C30BE000030BF003E08D1
:100F38008D00033032063304031DA32FA42FB92ECE
:100F480044084504031DA92FAA2FB92EB201B301E5
:100F58000130B4000030B5000930BE000030BF00D9
:100F68003E088D00B92EB201B301B401B501CC2FF2
:100F78007508003A0319C12FB72F7408003A0319EE
:100F8800B82E013A0319BD2E033A03193A2FB72F89
:100F980008003130840084308500583086000030E5
:100FA800870012308431222487313B308400853019
:100FB8008500A0308600003087004A308431222422
:100FC8008731B230840084308500203086000130BB
:100FD80087004030843122248731FA01FB01FC016B
:100FE800FD0120308400003085001E3084311C242F
:080FF800873120008531852DB1
:020000040001F9
:04000E00E409FF1EE4
:00000001FF
