:020000040000FA
:08000000803102288731DB2F5B
:1002B200640080010131890B5A290034FE001200CA
:1002C2001E00FE0B6029003420000E148E140E1541
:1002D2008D018E138E178E13080023008C018D0161
:1002E200073020008C00073021008C0020008D0197
:1002F20021008D01073020008E0021008E010800B0
:10030200F401F501701C862987298B297208F407EC
:100312007308F53D0130F235F30D890B8C2901305C
:10032200F136F00C890B912970087104031D9A298A
:100332009B2983297508F1007408F0000800AF2991
:100342002000EA01EB01BF292000E801E901BF29F1
:100352002000EA01EB01E801E901BF297108003A36
:100362000319B429BF297008003A0319A129013AD7
:100372000319A529033A0319A929BF290800F40181
:10038200F501F201F301031020000C1903140030EF
:10039200093DF000F1017008F6007108F7007708D6
:1003A2007306031DD62976087206031DD929DA2998
:1003B200DF290130F4070030F53DE129F401F501B0
:1003C200003075020B3003197402031CE929EA2973
:1003D200F7297708F1007608F000F009F1090130F9
:1003E2007005FB0000307105FC00FC297708F30062
:1003F2007608F200C4290800382A8131C0218131EF
:100402007B087C04031D062A072A482A01302000A3
:10041200EA000030EB00482A8131C02181317B03A0
:100422007C04031D152A162A482A01302000E80000
:100432000030E900482A8131C02181317B087C04E7
:10044200031D242A252A2A2A01302000EA0000302E
:10045200EB007B037C04031D2F2A302A482A20004C
:100462006A036B04031D362A372A482A162A79089A
:10047200003A03193D2A482A7808003A0319FE294E
:10048200013A03190D2A033A03191C2A482A0800C3
:1004920071340034793400345E340034583400341A
:1004A2007C3400345F3400346F3400347F340034E1
:1004B200273400347D3400346D3400346634003423
:1004C2004F3400345B340034063400343F3400349B
:1004D2005F3400347C340034583400345E340034E9
:1004E20079340034713400347634003438340034D2
:1004F20054340034733400347134003479340034A9
:100502005E340034583400347C3400345F340034B8
:100512005F3400347C340034583400345E340034A8
:1005220079340034713400343F34003406340034FA
:100532005B3400344F340034663400346D3400349C
:100542007D340034273400347F3400346F34003477
:100552005F3400347C340034583400345E34003468
:1005620079340034713400343F34003406340034BA
:100572005B3400344F340034663400346D3400345C
:100582007D340034273400347F3400346F34003437
:10059200063400344F3400346D34003427340034D0
:1005A2006F3400343F3400345B340034663400343A
:1005B2007D3400347F3400345434003473340034D6
:1005C2007634003438340034F601F31FE92AEA2A7B
:1005D200F12AF209F309F20A0319F30AF601F60AFB
:1005E200F11FF42AF52AFA2AF009F109F00A03198F
:1005F200F10A700871040319FF2A002B292BF50157
:10060200F50A0C2B0130F035F10D890B042B01306A
:10061200F4007408F507F11F0F2B102B032B710840
:100622007302031D162B70087202031C192B1A2B5E
:100632001E2B7008F2027108F33B0130F136F00C08
:10064200890B1F2B0130F502031D282B292B102BA0
:10065200760803192D2B2E2B332BF209F309F20AFC
:100662000319F30A7308F1007208F0000800200071
:10067200A101F71F3D2B3E2B452BF609F709F60A80
:100682000319F70AA101A10AF91F482B492B522B82
:10069200F809F909F80A0319F90A0130FA007A0887
:1006A200A106A201A301760877040319592B5A2B3C
:1006B200892BA001A00A662B0130F635F70D890BB4
:1006C2005E2B0130FA007A08A007F71F692B6A2B0C
:1006D2005D2B0130A235A30D890B6B2B77087902B4
:1006E200031D752B76087802031C782B792B7E2B41
:1006F2007608F8027708F93B22140130F736F60C37
:10070200890B7F2B0130A002031D882B892B6A2BBA
:10071200210803198D2B8E2B932BA209A309A20A60
:100722000319A30A2308F7002208F60008007A300A
:100732002100990081316E2183318131652183311C
:100742002000C201C301C401C5010C1CA92BAA2BA4
:10075200A62B8C1CAD2BAE2BA62B0C1DB12BB22BBA
:10076200A62B8E148E18B62BB92B20000E15BB2B80
:1007720020000E110E19BE2BC12B20000E14C32B0C
:1007820020000E100230F0000030F1008131A02173
:10079200833140302000C8000030C9004030CE0014
:1007A2000030CF00CA01CB01CC01CD014908F100D4
:1007B2004808F0004F08F3004E08F2000030F40041
:1007C200F5000030F600F7008431A72483312000C1
:1007D2000C18EC2BED2B232C8C1CF02BF12B232C47
:1007E2000230F8000030F9008131FD2183317B08AD
:1007F2007C04031DFD2BFE2B232C200068036904BF
:10080200031D042C052C232C4A084B04031D0A2C1F
:100812000B2C0F2C0A30CA000030CB00FF30CA0765
:10082200FF30CB3D0230F0000030F1008131A021D9
:10083200833120004235C03E86008701403FC80018
:10084200413FC90020000C1C272C282C752C8C1C25
:100852002B2C2C2C752C40304E064F040319322CB5
:10086200332C752C40304E064F04031D392C3A2C84
:10087200422C210041082000CF0021004008200026
:10088200CE000230F8000030F9008131FD218331C1
:100892007B087C04031D4E2C4F2C752C2000680312
:1008A2006904031D552C562C752C09304C064D0439
:1008B200031D5C2C5D2C612CFF30CC00FF30CD0081
:1008C2000130CC070030CD3D0230F0000030F100A5
:1008D2008131A021833120004435C03E860087014A
:1008E200403FCC00413FCD0020000C1C792C7A2CDB
:1008F200D72B8C1C7D2C7E2CD72B4B08F1004A0861
:10090200F0000A30F2000030F3008131812183319E
:1009120020004C087007C6004D08713DC70047080B
:10092200A5004608A4000A30A6000030A7008631C0
:100932001126833120005508C9005408C800530805
:10094200CF005208CE00D72B803102282000A2010E
:10095200A301A601A701A001A1018E1370088D00B9
:100962008E120E17053076067704031DB92CBA2CA9
:10097200BF2CA030A2000F30A300C32CD030A200A5
:100982000730A3002308A5002208A4002408250498
:10099200031DCC2CCD2CCE2CD32C0130A402003044
:1009A200A53BC72C8E120E1372088D000E138E16E5
:1009B200053076067704031DDF2CE02CE52CA030F1
:1009C200A2000F30A300E92CD030A2000730A30010
:1009D2002308A5002208A40024082504031DF22CE4
:1009E200F32CF42CF92C0130A4020030A53BED2CA1
:1009F2008E120E13002E8D018E138E178E13102E53
:100A020066036704031D062D072D092DE401E50188
:100A1200E601E70164086504031D102D112D272D41
:100A220026082704031D162D172D272D0130E4005B
:100A32000030E500E201E3010130A6000030A7002A
:100A42000930A0000030A10020088D006403650475
:100A5200031D2C2D2D2D452D26082704031D322D77
:100A6200332D452D0230E4000030E5000330E20072
:100A72000030E3000130A6000030A7000C30A000D7
:100A82000030A10020088D00023064066504031DB9
:100A92004B2D4C2D642D26082704031D512D522D5C
:100AA200642D0330E4000030E5000230E200003043
:100AB200E3000130A6000030A7000630A00000309D
:100AC200A10020088D00033064066504031D6A2D11
:100AD2006B2DFD2C26082704031D702D712DFD2C76
:100AE200E401E5010130E2000030E3000330A00040
:100AF2000030A10020088D00FD2C66036704031D51
:100B0200832D842D862DE201E301E601E7016208CF
:100B12006304031D8D2D8E2DA42D26082704031D8D
:100B2200932D942DA42D0130E2000030E300E40166
:100B3200E5010130A6000030A7000330A00000301C
:100B4200A10020088D0062036304031DA92DAA2DB4
:100B5200C22D26082704031DAF2DB02DC22D023051
:100B6200E2000030E3000330E4000030E500013031
:100B7200A6000030A7000630A0000030A100200827
:100B82008D00023062066304031DC82DC92DE12DBC
:100B920026082704031DCE2DCF2DE12D0330E200C0
:100BA2000030E3000230E4000030E5000130A6002E
:100BB2000030A7000C30A0000030A10020088D00FA
:100BC200033062066304031DE72DE82DFD2C260881
:100BD2002704031DED2DEE2DFD2CE201E301013072
:100BE200E4000030E5000930A0000030A100200838
:100BF2008D00FD2CE201E301E401E501102E7508F0
:100C0200003A0319052EFB2D7408003A0319FC2C37
:100C1200013A0319012D033A03197E2DFB2D080019
:100C22002000D001D101A51F172E182E1C2E013035
:100C3200D0000030D10050035104031D212E222E7A
:100C4200CA2F2408FF3EA800FF30253DA90028092D
:100C5200A4002909A500CA2F6430F6000030F7006D
:100C62002508F9002408F8008331382386317708F3
:100C72002000B1007608B0000A30F6000030F7001C
:100C82003108F1003008F0009C30F200FF30F30030
:100C9200813181218631200024087007F80025085F
:100CA200713DF90083313823863177082000AF0087
:100CB2007608AE000A30F0000030F1002508F3009B
:100CC2002408F2008231E522863171082000AD004D
:100CD2007008AC003F30D8000030D900B201B30137
:100CE20033083106031D772E32083006031D7A2E93
:100CF2007B2E832E3235A03E86008701403FD600F0
:100D0200413FD7000130B2070030B33D003033021B
:100D1200033003193202031C8F2E902E712EB40160
:100D2200B50135082F06031D982E34082E06031D23
:100D32009B2E9C2EA42E3435A03E86008701403F78
:100D4200D400413FD5000130B4070030B53D00303A
:100D520035020A3003193402031CB02EB12E922E32
:100D6200B601B70137082D06031DB92E36082C0629
:100D7200031DBC2EBD2EC52E3635A03E8600870132
:100D8200403FD200413FD3000130B6070030B73DAB
:100D9200003037020A3003193602031CD12ED22E3C
:100DA200B32EDA2F2508A9002408A8000630AA00CD
:100DB200290DA90CA80CAA0BD92E2808B0002908C5
:100DC200B1003108A9003008A8000630A835A90DE5
:100DD200890BE72E28082402AA002908253BAB002C
:100DE2002B0DAB0CAA0C2B0DAB0CAA0C2B0DAB0CC8
:100DF200AA0C2A08AE002B08AF0007302405A40075
:100E020000302505A5003F30D8000030D900B201DE
:100E1200B30133083106031D102F32083006031DBB
:100E2200132F142F1C2F3235A03E86008701403F1E
:100E3200D600413FD7000130B2070030B33D003049
:100E42003302043003193202031C282F292F0A2FE0
:100E5200B401B50135082F06031D312F34082E06C3
:100E6200031D342F352F3D2F3435A03E86008701D8
:100E7200403FD400413FD5000130B4070030B53DBA
:100E820000303502083003193402031C492F4A2F5F
:100E92002B2FB601B70137082D06031D522F360836
:100EA2002C06031D552F562F5E2F3635A03E860089
:100EB2008701403FD200413FD3000130B6070030E6
:100EC200B73D00303702083003193602031C6A2F7F
:100ED2006B2F4C2FDA2F3F30D8000030D9003F3033
:100EE200D6000030D700240E0F39AE00250EF0399F
:100EF200AE04250E0F39AF00F030AF1D0030AF0445
:100F02000F302405AC0000302505AD00B401B50159
:100F120035082F06031D8F2F34082E06031D922F2E
:100F2200932F9B2F3435A03E86008701403FD4008B
:100F3200413FD5000130B4070030B53D00303502E5
:100F4200103003193402031CA72FA82F892FB601D2
:100F5200B70137082D06031DB02F36082C06031DD6
:100F6200B32FB42FBC2F3635A03E86008701403FF9
:100F7200D200413FD3000130B6070030B73D003008
:100F82003702103003193602031CC82FC92FAA2FAB
:100F9200DA2F2708003A0319CF2FDA2F2608083A4A
:100FA2000319D32E023A03192D2E1A3A03196C2F64
:100FB200DA2F08009530840082308500A030860048
:100FC20000308700503081315F2187314930840001
:100FD2008230850020308600013087004C3081311C
:100FE2005F218731FB01FC01503084000030850015
:0E0FF200203081315921873120008331982B26
:020000040001F9
:04000E00E409FF1EE4
:00000001FF
