:020000040000FA
:10000000803102288731C92F3F3400340634003450
:100010005B3400344F340034663400346D340034C3
:100020007D340034273400347F3400346F3400349E
:100030005F3400347C340034583400345E3400348F
:1000400079340034713400343F34003406340034E1
:100050005B3400344F340034663400346D34003483
:100060007D340034273400347F3400346F3400345E
:10007000543400347334003476340034383400346B
:10008000F601F31F442845284C28F209F309F20A27
:100090000319F30AF601F60AF11F4F2850285528D4
:1000A000F009F109F00A0319F10A70087104031943
:1000B0005A285B288428F501F50A67280130F035B5
:1000C000F10D890B5F280130F4007408F507F11F6A
:1000D0006A286B285E2871087302031D7128700856
:1000E0007202031C7428752879287008F2027108BE
:1000F000F33B0130F136F00C890B7A280130F50220
:10010000031D832884286B287608031988288928EA
:100110008E28F209F309F20A0319F30A7308F100B1
:100120007208F00008002000A101F71F9828992804
:10013000A028F609F709F60A0319F70AA101A10A8E
:10014000F91FA328A428AD28F809F909F80A03190A
:10015000F90A0130FA007A08A106A201A301760883
:1001600077040319B428B528E428A001A00AC128FF
:100170000130F635F70D890BB9280130FA007A08FD
:10018000A007F71FC428C528B8280130A235A30D41
:10019000890BC62877087902031DD02876087802D3
:1001A000031CD328D428D9287608F8027708F93B0D
:1001B00022140130F736F60C890BDA280130A00240
:1001C000031DE328E428C52821080319E828E928A5
:1001D000EE28A209A309A20A0319A30A2308F7001B
:1001E0002208F6000800031020000C180314003049
:1001F000093DFA00FB017A08AE007B08AF0003104E
:100200008C1803140030093DFA00FB017A08B00095
:100210007B08B1000A30F0000030F1002D08F30037
:100220002C08F2008E31FC26803171082000AD00D0
:100230007008AC002D08B3002C08B200320833045B
:10024000031D23292429252975292908F1002808B7
:10025000F0002B08F3002A08F2000030F400F5004B
:100260000030F600F7008131762180310030F8004F
:10027000F9008F31B5278031031020000C180314CA
:100280000030093DFA00FB012F087B06031D4A29B7
:100290002E087A06031D4D294E296B2903108C1850
:1002A00003140030093DFA00FB0131087B06031DF1
:1002B0005B2930087A06031D5E295F296B296E03CE
:1002C0006F04031D6429652970296C036D04031DE7
:1002D0006A296B2970290130A8000030A90075290E
:1002E0000130B2020030B33B1E2908002000A201F9
:1002F000A301A601A701A001A1018E1370088D0022
:100300008E120E17053076067704031D8829892979
:100310008E29A030A2000F30A3009229D030A20075
:100320000730A3002308A5002208A4002408250400
:10033000031D9B299C299D29A2290130A40200307C
:10034000A53B96298E120E1372088D000E138E1681
:10035000053076067704031DAE29AF29B429A030F5
:10036000A2000F30A300B829D030A2000730A300AC
:100370002308A5002208A40024082504031DC12980
:10038000C229C329C8290130A4020030A53BBC29D9
:100390008E120E13CF2A8D018E138E178E13DF2A25
:1003A00068036904031DD529D629D829E601E70188
:1003B000E801E90166086704031DDF29E029F62941
:1003C00026082704031DE529E629F6290130E60061
:1003D0000030E700E401E5010130A6000030A7008D
:1003E0000930A0000030A10020088D0066036704DA
:1003F000031DFB29FC29142A26082704031D012AB2
:10040000022A142A0230E6000030E7000330E4003C
:100410000030E5000130A6000030A7000C30A0003D
:100420000030A10020088D00023066066704031D1D
:100430001A2A1B2A332A26082704031D202A212AC8
:10044000332A0330E6000030E7000230E4000030D9
:10045000E5000130A6000030A7000630A000003003
:10046000A10020088D00033066066704031D392AA9
:100470003A2ACC2926082704031D3F2A402ACC29E2
:10048000E601E7010130E4000030E5000330A000A0
:100490000030A10020088D00CC2968036904031DE9
:1004A000522A532A552AE401E501E801E9016408CA
:1004B0006504031D5C2A5D2A732A26082704031D90
:1004C000622A632A732A0130E4000030E500E60165
:1004D000E7010130A6000030A7000330A000003083
:1004E000A10020088D0064036504031D782A792A81
:1004F000912A26082704031D7E2A7F2A912A02308A
:10050000E4000030E5000330E6000030E700013091
:10051000A6000030A7000630A0000030A10020088F
:100520008D00023064066504031D972A982AB02ABC
:1005300026082704031D9D2A9E2AB02A0330E400C2
:100540000030E5000230E6000030E7000130A60090
:100550000030A7000C30A0000030A10020088D0062
:10056000033064066504031DB62AB72ACC29260881
:100570002704031DBC2ABD2ACC29E401E501013072
:10058000E6000030E7000930A0000030A10020089C
:100590008D00CC29E401E501E601E701DF2A7508B9
:1005A000003A0319D42ACA2A7408003A0319CB293D
:1005B000013A0319D029033A03194D2ACA2A08001F
:1005C0002000DA01DB01A51FE62AE72AEB2A013029
:1005D000DA000030DB005A035B04031DF02AF12A25
:1005E000A32C2408FF3EA800FF30253DA9002809C0
:1005F000A4002909A500A32C6430F6000030F70000
:100600002508F9002408F80080319320823177080A
:100610002000B1007608B0000A30F6000030F70084
:100620003108F1003008F0009C30F200FF30F30098
:100630008E3179268231200024087007F8002508C1
:10064000713DF90080319320823177082000AF009E
:100650007608AE000A30F0000030F1002508F30003
:100660002408F20080314020823171082000AD0062
:100670007008AC003F302100DE000030DF002000B9
:10068000B201B30133083106031D482B320830068E
:10069000031D4B2B4C2B552B3235A03E860087017A
:1006A000403F2100DC00413FDD0001302000B20767
:1006B0000030B33D00303302033003193202031C13
:1006C000622B632B422BB401B50135082F06031DA5
:1006D0006B2B34082E06031D6E2B6F2B772B3435B6
:1006E000A03E86008701403FDE00413FDF00013031
:1006F000B4070030B53D003035020A30031934022A
:10070000031C832B842B652BB601B70137082D06FC
:10071000031D8C2B36082C06031D8F2B902B982B3A
:100720003635A03E86008701403FDC00413FDD00BA
:100730000130B6070030B73D003037020A300319E8
:100740003602031CA42BA52B862BB32C2508A9004D
:100750002408A8000630AA00290DA90CA80CAA0B91
:10076000AC2B2808B0002908B1003108A9003008D6
:10077000A8000630A835A90D890BBA2B2808240239
:10078000AA002908253BAB002B0DAB0CAA0C2B0DA6
:10079000AB0CAA0C2B0DAB0CAA0C2A08AE002B0834
:1007A000AF0007302405A40000302505A5003F3028
:1007B0002100DE000030DF002000B201B301330869
:1007C0003106031DE52B32083006031DE82BE92B0B
:1007D000F22B3235A03E86008701403F2100DC002D
:1007E000413FDD0001302000B2070030B33D003052
:1007F0003302043003193202031CFF2B002CDF2BC1
:10080000B401B50135082F06031D082C34082E0647
:10081000031D0B2C0C2C142C3435A03E86008701B4
:10082000403FDE00413FDF000130B4070030B53DFE
:1008300000303502083003193402031C202C212C0F
:10084000022CB601B70137082D06031D292C3608E6
:100850002C06031D2C2C2D2C352C3635A03E860065
:100860008701403FDC00413FDD000130B60700302A
:10087000B73D00303702083003193602031C412C03
:10088000422C232CB32C3F302100DE000030DF004F
:100890003F30DC000030DD002000240E0F39AE00B8
:1008A000250EF039AE04250E0F39AF00F030AF1D24
:1008B0000030AF040F302405AC0000302505AD003A
:1008C000B401B50135082F06031D682C34082E0627
:1008D000031D6B2C6C2C742C3435A03E86008701D4
:1008E000403FDE00413FDF000130B4070030B53D3E
:1008F00000303502103003193402031C802C812C87
:10090000622CB601B70137082D06031D892C360865
:100910002C06031D8C2C8D2C952C3635A03E860084
:100920008701403FDC00413FDD000130B607003069
:10093000B73D00303702103003193602031CA12CDA
:10094000A22C832CB32C2708003A0319A82CB32C13
:100950002608083A0319A62B023A0319FC2A1A3A68
:100960000319432CB32C08007A30210099008E31F2
:10097000662684318E315D2684312000C601C70190
:10098000C001C1010C1CC52CC62CC22C8C1CC92C4E
:10099000CA2CC22C0C1DCD2CCE2CC22C8E148E1821
:1009A000D22CD52C20000E15D72C20000E110E199C
:1009B000DA2CDD2C20000E14DF2C20000E1002306B
:1009C000F0000030F1008E31982684312000D401EF
:1009D000D501D601D701C801C901CA01CB01CC019B
:1009E000CD01CE01CF01BC01BD01BE01BF01D801C7
:1009F000D901D201D301C401C5015508F100540841
:100A0000F0005708F3005608F2000030F400F5003B
:100A10000030F600F700813176218431200049084A
:100A2000F1004808F0004B08F3004A08F2000030DB
:100A3000F400F5000030F600F700813176218431B2
:100A400020000C18242D252D632D8C1C282D292DDC
:100A5000632D4030D4000030D5004030D600003047
:100A6000D7000230F8000030F9008F31B52784310B
:100A700020006E086F04031D3E2D3F2D632D6A0379
:100A80006B04031D442D452D632D4C084D04031D9F
:100A90004A2D4B2D4F2D0A30CC000030CD00FF30B9
:100AA000CC07FF30CD3D0230F0000030F1008E3138
:100AB0009826843120004635C03E86008701403F9D
:100AC000D400413FD5000C1C662D672DB42D8C1C25
:100AD0006A2D6B2DB42D4030560657040319712D25
:100AE000722DB42D403056065704031D782D792DF4
:100AF000812D210041082000D7002100400820005E
:100B0000D6000230F8000030F9008F31B52784316B
:100B100020006E086F04031D8E2D8F2DB42D6A03E7
:100B20006B04031D942D952DB42D09304E064F04F2
:100B3000031D9B2D9C2DA02DFF30CE00FF30CF003C
:100B40000130CE070030CF3D0230F0000030F10020
:100B50008E319826843120004035C03E86008701C2
:100B6000403FCE00413FCF000C1CB72DB82DD42DF7
:100B70008C18BB2DBC2DD42D4030560657040319BC
:100B8000C22DC32DD42D4030540655040319C92D50
:100B9000CA2DD42D58085904031DCF2DD02DD42D86
:100BA0000130D8000030D9000C1CD72DD82DCB2E09
:100BB0008C1CDB2DDC2DCB2E403056065704031940
:100BC000E22DE32DCB2E4030540655040319E92DB8
:100BD000EA2DCB2E58035904031DEF2DF02DCB2EFB
:100BE000D801D9014D08F1004C08F0000A30F2009C
:100BF0000030F3008E317926843120004E087007D2
:100C0000D2004F08713DD3005308A5005208A4003C
:100C10000A30A6000030A7008231E02284310A3079
:100C2000F6000030F70020005308F9005208F800E1
:100C30008031932084317708803AFC0080307C0238
:100C4000031D242E02307602031C272E282E2E2E62
:100C500020005F08D5005E08D400312E2000D401AA
:100C6000D5015D08D7005C08D60058085904031D5B
:100C70003A2E3B2E3F2E0230D8000030D900521CB5
:100C8000422E432E652E023058065904031D492E6C
:100C90004A2E652E0330D8000030D9006830A800F5
:100CA0000130A9005508AB005408AA005708AD0050
:100CB0005608AC000130AE000030AF000130B0008B
:100CC0000030B1008E31D826843120005218692EB0
:100CD0006A2E8C2E023058065904031D702E712E78
:100CE0008C2E0330D8000030D900D030A80002305C
:100CF000A9005508AB005408AA005708AD005608D3
:100D0000AC000230AE000030AF000130B000003067
:100D1000B1008E31D826843120005218902E912EA9
:100D2000CB2E023058065904031D972E982ECB2E39
:100D30000330D8000030D9006830A8000130A90085
:100D40005508AB005408AA005708AD005608AC007F
:100D50000130AE000030AF000130B0000030B10013
:100D60008E31D826843168302000A8000130A900D7
:100D70005508AB005408AA005708AD005608AC004F
:100D80000230AE000030AF000130B0000030B100E2
:100D90008E31D82684310230F8000030F9008F31CE
:100DA000B527843120000C1CD62ED72E082F8C1C82
:100DB000DA2EDB2E082F6E086F04031DE02EE12EC5
:100DC000082F6A036B04031DE62EE72E082F403020
:100DD000560657040319ED2EEE2E082F4030540608
:100DE00055040319F42EF52E082F03305806590424
:100DF000031DFB2EFC2E082FD801D901D601D701E7
:100E0000D401D501CE01CF01CC01CD01D201D30156
:100E10000C1C0B2F0C2F8F2F8C180F2F102F8F2F98
:100E20005430D6000030D7005708D5005608D400FB
:100E30000230F8000030F9008F31B52784312000EE
:100E40006E086F04031D252F262F302F6A036B04B5
:100E5000031D2B2F2C2F302F0130C6070030C73D2C
:100E60004708803AFC0080307C02031D392F023095
:100E70004602031C3C2F3D2F8F2F20005808590499
:100E8000031D432F442F8F2FD001D1012000510883
:100E9000A5005008A4000A30A6000030A700823147
:100EA000E022843120005F08C9005E08C8005D08A8
:100EB000CB005C08CA004908A9004808A8004B08F4
:100EC000AB004A08AA00E830AC000330AD00803126
:100ED000F320843120002908C3002808C2004203FF
:100EE0004304031D742F752F7E2F5108C500500831
:100EF000C4000B30D8000030D9008F2F0130D0074C
:100F00000030D13D5108803AFC0080307C02031D46
:100F10008B2F10305002031C8E2F8F2F462F200056
:100F20000C18932F942FA32F8C18972F982FA32F43
:100F30000B3058065904031D9E2F9F2FA32F0C30F2
:100F4000D8000030D9000C1CA62FA72FFD2C8C1820
:100F5000AA2FAB2FFD2C0C3058065904031DB12FBE
:100F6000B22FFD2C4508A5004408A4001030A600AF
:100F70000030A7008231E02284313F302000C800D9
:100F80000030C9005D08CB005C08CA00FD2C803130
:100F900002280430840080308500A03086000030B4
:100FA00087003C308E3157268731753084008F3072
:100FB0008500203086000130870040308E31572672
:100FC0008731B83084008E308500A0308600013033
:100FD000870020308E31572687315A308400003008
:100FE000850016308E3151268731DC308400003088
:100FF00085000C308E315126873120008431B42C8D
:101CA200640080010131890B522E0034FE001200C3
:101CB2001E00FE0B582E003420000E148E140E153A
:101CC2008D018E138E178E13080023008C018D0157
:101CD200073020008C00073021008C0020008D018D
:101CE20021008D01073020008E0021008E010800A6
:101CF200F401F501701C7E2E7F2E832E7208F407EC
:101D02007308F53D0130F235F30D890B842E013055
:101D1200F136F00C890B892E70087104031D922E86
:101D2200932E7B2E7508F1007408F0000800A72E90
:101D32002000EC01ED01B72E2000EA01EB01B72EE5
:101D42002000EC01ED01EA01EB01B72E7108003A27
:101D52000319AC2EB72E7008003A0319992E013AD6
:101D620003199D2E033A0319A12EB72E08007134D0
:101D72000034793400345E340034583400347C3416
:101D820000345F3400346F3400347F34003427343D
:101D920000347D3400346D340034663400344F3402
:101DA20000345B340034063400343F340034200005
:101DB2002908F9002808F800F91FE02EE12EE22E8A
:101DC200FB2E20002B08F1002A08F0002D08F3005A
:101DD2002C08F2002F08F5002E08F4003108F70055
:101DE2003008F600813176218E31FF30F807FF305E
:101DF200F93DDD2E0800F501F601700871040319A2
:101E0200032F042F332FF701F70A102F0130F0357B
:101E1200F10D890B082F0130F4007408F707F11F48
:101E2200132F142F072F0130F535F60D890B152FBF
:101E320071087302031D1F2F70087202031C222FE8
:101E4200232F282F7008F2027108F33B751401301A
:101E5200F136F00C890B292F0130F702031D322FC6
:101E6200332F142F7608F1007508F0000800F401F2
:101E7200F501F201F301031020000C1903140030E4
:101E8200093DF000F1017008F6007108F7007708CB
:101E92007306031D4E2F76087206031D512F522F13
:101EA200572F0130F4070030F53D592FF401F501A9
:101EB200003075020B3003197402031C612F622F6C
:101EC2006F2F7708F1007608F000F009F109013070
:101ED2007005EE0000307105EF00742F7708F300F3
:101EE2007608F2003C2F08005F3400347C34003462
:101EF200583400345E3400347934003471340034A0
:101F020076340034383400345434003473340034BA
:101F120071340034793400345E340034583400347F
:101F22007C3400345F3400345F3400347C34003459
:101F3200583400345E34003479340034713400345F
:101F4200063400344F3400346D3400342734003406
:101F52006F3400343F3400345B3400346634003470
:101F62007D3400347F340034EF2F8F3138278F31A6
:101F720020006E086F04031DBF2FC02FFF2F0130FA
:101F8200EC000030ED00FF2F8F3138278F31200019
:101F92006E036F04031DCE2FCF2FFF2F0130EA00F7
:101FA2000030EB00FF2F8F3138278F3120006E0871
:101FB2006F04031DDD2FDE2FE22F0130EC00003015
:101FC200ED006E036F04031DE72FE82FFF2F6C0354
:101FD2006D04031DED2FEE2FFF2FCF2F7908003A4E
:101FE2000319F42FFF2F7808003A0319B62F013A8C
:0E1FF2000319C52F033A0319D42FFF2F08003F
:020000040001F9
:04000E00E409FF1EE4
:00000001FF
